:020000040800F2
:1000000010160020390200086D4000088B300008EF
:100010003D3F0008AF0600087D4E000800000000CC
:10002000000000000000000000000000B5430008D0
:10003000FF0700080000000071400008414500086B
:10004000530200085302000853020008530200083C
:10005000530200085302000853020008530200082C
:10006000530200085302000853020008530200081C
:10007000530200085302000853020008530200080C
:100080005302000853020008530200080000000059
:100090000000000000000000000000005302000803
:1000A00053020008254600081546000853020008C0
:1000B00053020008530200083546000853020008A6
:1000C00053020008530200085302000853020008BC
:1000D000530200085D4E00085302000800000000B3
:1000E0000108000853020008530200080000000045
:1000F00000000000000000000000000053020008A3
:1001000000000000530200084546000853020008A2
:1001100000000000000000000000000000000000DF
:1001200053020008B5060008C5060008530200087F
:100130005302000800000000000000000000000062
:100140000000000000000000000000005302000852
:1001500053020008D5060008E50600086D4E0008A9
:1001600053020008530200080000000000000000D5
:10017000000000000000000000000000000000007F
:100180000000000053020008000000000000000012
:10019000530200085302000800F002F800F03CF897
:1001A0000AA090E8000C82448344AAF10107DA45D2
:1001B00001D100F031F8AFF2090EBAE80F0013F0E8
:1001C000010F18BFFB1A43F0010318473C7F0000E2
:1001D0005C7F0000103A24BF78C878C1FAD8520773
:1001E00024BF30C830C144BF04680C6070470000B1
:1001F0000023002400250026103A28BF78C1FBD830
:10020000520728BF30C148BF0B6070471FB506F0CA
:10021000CCFE1FBD10B510BD00F014FA1146FFF75B
:10022000F5FF05F06DFE00F032FA03B4FFF7F2FFC0
:1002300003BC00F035FA0000094880470948004730
:10024000FEE7FEE7FEE7FEE7FEE7FEE7FEE7FEE786
:10025000FEE7FEE704480549054A064B70470000E3
:100260000146000899010008101000201016002017
:10027000101200201012002053EA020C00F06980D6
:100280002DE9F04B4FF00006002B1FBFB3FA83F5AA
:1002900003FA05F424FA05F65E4012BF1643B2FADB
:1002A00082F502FA05F4C5F120051EBF22FA05FC0D
:1002B00044EA0C04203556EA044C4FEA144418BFB3
:1002C000641C4FF000084FF00009904271EB030CE2
:1002D00039D3002919BFB1FA81F701FA07F6B0FA4C
:1002E00080F700FA07F6C7F120071EBF20FA07FCC7
:1002F00046EA0C062037B6FBF4FCA7EB0507103FD7
:1003000007F01F0BCBF120060CFA0BFB2CFA06F6BC
:1003100044BFB3460026202FA4BF5E464FF0000B1B
:100320005BEA060C08BF4FF0010B19EB0B09ABFBA6
:10033000027C48EB0608C01B06FB02CC0BFB03CC7F
:1003400071EB0C01C1E70B46024641464846BDE849
:10035000F08B13B54FF000004FF00001AFF30080B9
:10036000BDE81C40704740EA010310B59B070FD160
:10037000042A0DD310C808C9121F9C42F8D020BA15
:1003800019BA884201D9012010BD4FF0FF3010BDCD
:100390001AB1D30703D0521C07E0002010BD10F89B
:1003A000013B11F8014B1B1B07D110F8013B11F861
:1003B000014B1B1B01D1921EF1D1184610BD40EA22
:1003C0000103024630B59B0710D14FF0013400E025
:1003D00008C208C91D1B9D4315EAC41FF8D013F0BD
:1003E000FF0102F8011B0DD01B0AF8E711F8013BD1
:1003F000002B02F8013B05D011F8013B002B02F85D
:10040000013BF3D130BD032A40F2308010F0030CE1
:1004100000F0158011F8013BBCF1020F624498BF57
:1004200011F801CB00F8013B38BF11F8013BA2F1F4
:10043000040298BF00F801CB38BF00F8013B11F06F
:10044000030300F0C580083AC0F0088051F8043B6F
:10045000083A51F804CBA0E80810F5E7121D5CBF7C
:1004600051F8043B40F8043BAFF30080D20724BFAF
:1004700011F8013B11F801CB48BF11F8012B24BF43
:1004800000F8013B00F801CB48BF00F8012B704792
:1004900002F0FF0343EA032242EA024200F002B8FC
:1004A0004FF000020429C0F0128010F0030C00F09D
:1004B0001B80CCF1040CBCF1020F18BF00F8012B1B
:1004C000A8BF20F8022BA1EB0C0100F00DB85FEAE9
:1004D000C17C24BF00F8012B00F8012B48BF00F8B5
:1004E000012B70474FF0000200B513469446964624
:1004F000203922BFA0E80C50A0E80C50B1F1200137
:10050000BFF4F7AF090728BFA0E80C5048BF0CC0E4
:100510005DF804EB890028BF40F8042B08BF704742
:1005200048BF20F8022B11F0804F18BF00F8012BB4
:10053000704700004FF0013C50F8042B51F8043B89
:100540009A4221D1A2EB0C03934313EACC1317D1A7
:1005500050F8042B51F8043B9A4215D1A2EB0C033E
:10056000934313EACC130BD150F8042B51F8043BFE
:100570009A4209D1A2EB0C03934313EACC13DBD0CC
:100580004FF00000704700BFD01A01BAB1FA81F1F4
:1005900001F0180122FA01F0CB40C1F12001DBB2D9
:1005A000C0B2C01A2CFA01F3D11A914311EAC31157
:1005B000E6D1704770477047704710B500F03AF8C1
:1005C000006810BD10B5044600F034F8046010BD9A
:1005D00010B5203AC0F00B80B1E81850203AA0E8DE
:1005E0001850B1E81850A0E81850BFF4F5AF5FEA12
:1005F000027C24BFB1E81850A0E8185044BF18C9C5
:1006000018C0BDE810405FEA827C24BF51F8043B6B
:1006100040F8043B08BF7047D20728BF31F8023BBF
:1006200048BF11F8012B28BF20F8023B48BF00F853
:10063000012B704700487047AC0F002000487047FE
:10064000AC0F00207546FFF7F9FFAE46050069467E
:10065000534620F00700854618B020B5FFF7FAFD95
:10066000BDE820404FF000064FF000074FF00008B3
:100670004FF0000B21F00701AC46ACE8C009ACE834
:10068000C009ACE8C009ACE8C0098D46704710B598
:100690000446AFF300802046BDE81040FFF7C5BD1B
:1006A00001491820ABBEFEE726000200704700BFDC
:1006B000FEE7000010B5024800F084F910BD00000C
:1006C0009C03002010B5024800F07CF910BD00002A
:1006D0003C03002010B5024800F074F910BD000082
:1006E000FC03002010B5024800F06CF910BD0000BA
:1006F000DC0200200146087810381823B0FBF3F222
:100700000848805CC865032A05D908686FF30900AA
:10071000001D886503E008686FF309008865886D2F
:1007200070470000B46F0008014600208A6A8B6998
:10073000CBB932B1012A0DD0022A03D0032A10D13D
:100740000EE000BFCB6A03F08073B3F1807F00D16D
:10075000012007E0CB6AB3F1C07F00D1012001E0A6
:1007600000E000BF34E08B69B3F5005F1AD132B10D
:10077000012A07D0022A03D0032A11D10AE000BFC0
:1007800001200EE0CB6A03F08073B3F1807F00D1CB
:10079000012006E0CB6AB3F1C07F00D1012000E068
:1007A00000BF15E032B1012A05D0022A04D0032A85
:1007B0000CD103E000BF00BF012008E0CB6A03F0CA
:1007C0008073B3F1807F00D1012000E000BF00BF43
:1007D000704730B50468246824F4802405682C60D0
:1007E000046863608468402C04D10468A2600468D3
:1007F000E16003E00468A1600468E26030BD704716
:1008000010B54FF4004000F093FB10BD72B600BF6E
:10081000FEE710B5014691F8BE00132290FBF2F3FB
:1008200002FB130091F8BF20132392FBF3F403FBA8
:100830001422904201D1012010BD0020FCE710B528
:10084000014691F8BE00401C132290FBF2F302FB1C
:10085000130091F8BF20132392FBF3F403FB14223F
:10086000904201D1012010BD0020FCE770B5044684
:100870000D462046FFF7CDFF08B1002070BD94F86B
:10088000BF0000EB800004EB400001682960416874
:1008900069600089288194F8BF00401C132190FBF7
:1008A000F1F201FB120084F8BF000120E6E770B509
:1008B00004460D462046FFF7C2FF08B1002070BD78
:1008C00094F8BE0000EB800004EB40002968016052
:1008D000696841602989018194F8BE00401C132198
:1008E00090FBF1F201FB120084F8BE000120E6E764
:1008F00070B50446A56D00F025FC064694F8350059
:10090000022808D08020606500BF002084F83400F1
:1009100000BF012070BD2068006820F0160021682B
:1009200008602068406920F0800021684861206CE0
:1009300008B9A06C28B12068006820F00800216880
:1009400008602068006820F001002168086010E05D
:1009500000F0F8FB801B05280BD9202060650320E0
:1009600084F8350000BF002084F8340000BF032065
:10097000D0E72068006800F001000028E8D194F872
:100980005C103F208840A860012084F8350000BF3B
:10099000002084F8340000BF00BFBBE7014691F897
:1009A0003500022803D080204865012070470520CB
:1009B00081F835000868006820F001000A681060BE
:1009C0000020F3E7F8B50446002000908C4800684A
:1009D0004FF41651B0FBF1F7A56D2E6894F85C103A
:1009E00008208840304098B12068006800F004007A
:1009F00070B12068006820F004002168086094F855
:100A00005C1008208840A860606D40F001006065BF
:100A100094F85C1001208840304068B1206840693B
:100A200000F0800040B194F85C1001208840A8607C
:100A3000606D40F00200606594F85C10042088400E
:100A4000304068B12068006800F0020040B194F8BE
:100A50005C1004208840A860606D40F00400606570
:100A600094F85C1010208840304078B3206800680B
:100A700000F0080050B394F85C1010208840A86083
:100A80002068006800F4802080B12068006800F4CD
:100A9000002028B9206CC8B12046216C884715E099
:100AA000A06C98B12046A16C88470FE020680068D0
:100AB00000F4807028B92068006820F008002168E0
:100AC0000860206C10B12046216C884794F85C10B7
:100AD000202088403040002865D02068006800F061
:100AE000100000285FD094F85C1020208840A86097
:100AF00094F83500052828D12068006820F01600F9
:100B0000216808602068406920F080002168486101
:100B1000206C08B9A06C28B12068006820F008009B
:100B20002168086094F85C103F208840A86001208C
:100B300084F8350000BF002084F8340000BF206D29
:100B400010B12046216D8847F8BD2068006800F488
:100B5000802080B12068006800F4002028B9606C13
:100B600010B12046616C88471DE0E06BD8B120468B
:100B7000E16B884717E02068006800F4807068B96E
:100B80002068006820F0100021680860012084F8C7
:100B9000350000BF002084F8340000BFE06B10B1C6
:100BA0002046E16B8847606D38B3606D00F001004E
:100BB000F0B1052084F835002068006820F00100BD
:100BC0002168086000BF0098401C0090B84200D91E
:100BD00005E02068006800F001000028F3D100BFA4
:100BE000012084F8350000BF002084F8340000BFE5
:100BF000E06C10B12046E16C884700BFA4E700001C
:100C0000240000202DE9F0410446002500F09AFA66
:100C1000074614B90120BDE8F081606A00B100BF49
:100C2000022084F8350000BF002084F8340000BFA3
:100C30002068006820F00100216808600AE000F0E8
:100C400081FAC01B052805D920206065032084F89F
:100C50003500E0E72068006800F001000028EED1D0
:100C60002068056821480540D4E901010843E1688E
:100C700008432169084361690843A1690843E169A0
:100C80000843216A08430543606A042803D1D4E974
:100C90000B0108430543206805602068456925F07D
:100CA0000705606A0543606A04280DD1A06A054300
:100CB000E06A48B12046FFF737FD28B14020606563
:100CC000012084F83500A6E7206845612046FFF73B
:100CD00011FD064694F85C103F208840B06000206B
:100CE0006065012084F83500002094E73F8010F013
:100CF0002DE9F04704460D4616461F464FF0000802
:100D0000D4F8589000BF94F83400012802D1022092
:100D1000BDE8F087012084F8340000BF94F8350066
:100D2000012825D1022084F83500002060653B466B
:100D3000324629462046FFF74CFD94F85C103F20D0
:100D40008840C9F808002068006840F01600216853
:100D50000860206C28B12068006840F00800216815
:100D600008602068006840F001002168086006E023
:100D700000BF002084F8340000BF4FF00208404656
:100D8000C6E7000070B5044600F0DCF906462546CB
:100D9000681C10B104480078054400BF00F0D2F987
:100DA000801BA842FAD370BD20000020F0B50C468D
:100DB000002500220023002183E0012606FA01F528
:100DC00004EA0502AA427BD1404E8F0856F827302C
:100DD0008E07370F0F26BE4033403D4EB04201D143
:100DE000002614E03B4EB04201D101260FE03A4EFE
:100DF000B04201D102260AE0384EB04201D10326AA
:100E000005E0374EB04201D1042600E007268F07E7
:100E10003F0FBE409E4224D1324E36689643314F3A
:100E20003E603E1D366896433F1D3E602D4E0C369B
:100E3000366896432B4F0C373E603E1F366896430C
:100E40003F1F3E608E07370F0F2606FA07F31F4E2F
:100E50008F0856F827609E431C4F4FEA910C47F8C5
:100E60002C6006684FEA410C032707FA0CF7BE43D3
:100E70000660CF0800F1200656F827604F074FEABA
:100E8000D76C0F2707FA0CF7BE434FEAD10C00F1DD
:100E9000200747F82C60C6684FEA410C032707FA81
:100EA0000CF7BE43C660466801278F40BE434660CC
:100EB00086684FEA410C032707FA0CF7BE438660A9
:100EC000491C1029FFF479AFF0BD0000083801403B
:100ED000000002400004024000080240000C0240F2
:100EE00000100240003C014010B50446B4F5004F2C
:100EF00009D10120044908700448007818B904A1F8
:100F0000002003F041F910BD020000200100002084
:100F10006B6B6B6B6B6B6B6B6B6B6B6B6B6B6B6B21
:100F20006B6B6B680A680A680A680A680A00000046
:100F300010B5044604480068204020B1024804600F
:100F40002046FFF7D1FF10BD143C0140F8B5024622
:100F50000B460025002400200021C7E0012606FAE8
:100F600001F51E6806EA0504AC4274D11E7906F04C
:100F70000306012E04D01E7906F00306022E13D1BB
:100F800090684F000326BE40B0434F00DE68BE406D
:100F900030439060506801268E40B0431E79C6F3FE
:100FA00000168E40304350601E7906F00306032E73
:100FB00009D0D0684F000326BE40B0434F009E6862
:100FC000BE403043D0601E7906F00306022E13D1D6
:100FD000CF0802F1200656F827004E07F70E0F261D
:100FE000BE40B0434F07FF0E1E69BE403043CF08DE
:100FF00002F1200646F8270010684F000326BE4085
:10100000B0431E7906F003064F00BE403043106027
:101010005E6806F44036002E67D000BF00260096BA
:10102000344E366846F48046324F3E603E4636685F
:1010300006F48046009600BF00BF2F4E8F0856F87A
:1010400027008E07370F0F26BE40B0432B4EB2420B
:1010500002D1002615E048E0294EB24201D1012616
:101060000FE0284EB24201D102260AE0264EB242DB
:1010700001D1032605E0254EB24201D1042600E04D
:1010800007268F073F0FBE4030431B4E8F0846F8A0
:1010900027001F4E3068A0435E6806F4801606B134
:1010A00020431B4E3060361D3068A0435E6806F456
:1010B000001606B12043164E361D3060144E361F02
:1010C0003068A0435E6806F4003606B12043104E37
:1010D000361F3060361F3068A0435E6806F48036E5
:1010E00006B120430A4E083E3060491C1029FFF427
:1010F00035AFF8BD443802400838014000000240D6
:101100000004024000080240000C024000100240AF
:10111000083C0140024613690B400BB1012000E07E
:101120000020704710B5426921EA020302EA010477
:1011300043EA0443836110BD0AB1816101E00B04FD
:101140008361704701480068704700001800002064
:1011500010B504460CB9012010BD242084F83D00D0
:101160002068006820F0010021680860204600F037
:1011700007FC0020206484F83D00206384F83E00D2
:1011800000BF84F83C0000BF00BFE5E770B504462F
:101190000CB9012070BD94F83D0028B9002084F8F6
:1011A0003C00204600F008FC242084F83D00206824
:1011B000006820F00100216808602068006840F4A1
:1011C0000040216808602068006820F40040216821
:1011D000086000F00FFE05465C496068884206D84A
:1011E0005B48854201D2012007E0002005E0594814
:1011F000854201D2012000E00020012800D1C9E78A
:101200005548B5FBF0F62068406820F03F003043B9
:10121000216848604D496068884201D8701C07E029
:101220004FF4967070434FF47A71B0FBF1F0401CAC
:101230002168096A21F03F01084321680862434997
:101240006068884214D8681E61684900B0FBF1F0FC
:10125000401CC0F30B00042801D204203DE0681EAE
:1012600061684900B0FBF1F0401CC0F30B0034E0B2
:10127000A06838B9681E616801EB4101B0FBF1F06C
:10128000401C0AE0681E616801EBC10202EB01111B
:10129000B0FBF1F0401C40F48040C0F30B0008B9F3
:1012A00001201AE0A06848B9681E616801EB41019D
:1012B000B0FBF1F0401CC0F30B000CE0681E61684D
:1012C00001EBC10202EB0111B0FBF1F0401CC0F3D5
:1012D0000B0040F4804040F400402168C9694CF69E
:1012E000FF72914308432168C861D4E907010843AC
:1012F0002168096821F0C001084321680860D4E929
:10130000031008432168896848F2FF32914308437B
:1013100021688860D4E9050108432168C96821F083
:10132000FF0108432168C8602068006840F00100A0
:101330002168086000202064202084F83D000020FF
:10134000206384F83E0000BF24E70000A08601006F
:1013500080841E0000093D0040420F002DE9F84F37
:1013600004460F4690461E46FFF7ECFE05464FF03A
:10137000000994F83D0020287ED1192301226349F9
:101380002046009502F077F810B10220BDE8F88FF2
:1013900000BF94F83C00012801D10220F6E70120AB
:1013A00084F83C0000BF2068006800F0010028B904
:1013B0002068006840F0010021680860206800682B
:1013C00020F4006021680860242084F83D0000209B
:1013D00020644F48E06200BF2068006840F48070DD
:1013E00021680860334600224FF001112046009525
:1013F00002F041F858B12068006800F48070B0F540
:10140000807F02D14FF4007020640320BEE707F014
:10141000FE0021680861FFF795FE054620684069D7
:10142000C0F3400A20684069C0F3802B10E0FFF74A
:1014300089FE401BB04200D816B9A02084F83D00B8
:1014400020684069C0F3400A20684069C0F3802BDF
:1014500094F83D00A02805D0BAF1000F02D1BBF1ED
:10146000000FE4D0202084F83D0020684069C0F3DC
:10147000400028B3206800E045E0006840F40070B8
:101480002168086000BF002000902068406900903B
:1014900020688069009000BF00BF192301221B490A
:1014A0002046009501F0E7FF08B101206EE72020FB
:1014B00084F83D0000BF002084F83C0000BF65E7D1
:1014C0002068006840F40070216808606FF4806054
:1014D00021684861192301220C492046009501F03A
:1014E000CAFF08B1012051E709F10109C145FFF424
:1014F00073AF202084F83D0000BF002084F83C003A
:1015000000BF012042E7022040E700000200100077
:101510000000FFFF2DE9FC5F04460F469046994608
:10152000DDE90CAB0E9EFFF70DFE054694F83D007D
:10153000202870D119230122B5492046009501F0D9
:101540009AFF10B10220BDE8FC9F00BF94F83C0058
:10155000012801D10220F6E7012084F83C0000BFF9
:101560002068006800F0010028B92068006840F099
:101570000100216808602068006820F4006021688C
:101580000860222084F83D00402084F83E000020BE
:101590002064C4F824A0A4F82AB0608D20859D485A
:1015A000E0624B46424639462046CDE9006501F0EF
:1015B0000FFE08B10120C6E7208D88B900BF0020CA
:1015C000019020684069019020688069019000BF07
:1015D00000BF2068006840F400702168086040E0A7
:1015E000208D012818D12068006820F480602168CF
:1015F000086000BF002001902068406901902068C9
:101600008069019000BF00BF2068006840F400704E
:101610002168086025E0F8E0208D022816D12068B6
:10162000006820F48060216808602068006840F449
:1016300000602168086000BF0020019020684069B8
:10164000019020688069019000BF0AE000BF00207F
:10165000019020684069019020688069019000BF76
:1016600000BFC3E0208D03287ED8208D012815D12E
:101670002A463146204601F0DAFF08B1012062E730
:1016800020680069616A0870606A401C6062208D91
:10169000401E2085608D401E6085A7E0208D0228B9
:1016A0002AD1334600225C492046009501F0E3FE32
:1016B00008B1012047E72068006840F40070216805
:1016C000086020680069616A0870606A401C606296
:1016D000208D401E2085608D401E60852068006939
:1016E000616A0870606A401C6062208D401E20851F
:1016F000608D401E608579E03346002246492046D1
:10170000009501F0B8FE08B101201CE720680068D0
:1017100020F480602168086020680069616A0870B0
:10172000606A401C6062208D401E2085608D401ED6
:1017300060853346002238492046009501F09BFE23
:1017400008B10120FFE62068006840F400702168BD
:10175000086020680069616A0870606A401C606205
:10176000208D401E208500E010E0608D401E6085C9
:1017700020680069616A0870606A401C6062208DA0
:10178000401E2085608D401E60852FE02A46314630
:10179000204601F04CFF08B10120D4E62068006922
:1017A000616A0870606A401C6062208D401E20855E
:1017B000608D401E608520684069C0F38000A8B13C
:1017C000208D032805D12068006820F480602168FE
:1017D000086020680069616A0870606A401C606285
:1017E000208D401E2085608D401E6085208D002844
:1017F0007FF438AF202084F83D00002084F83E00BC
:1018000000BF84F83C0000BF9DE602209BE600007C
:10181000020010000000FFFF040001002DE9FC5F42
:1018200004460F4690469946DDE90CAB0E9EFFF745
:1018300089FC054694F83D0020287DD1192301221A
:101840004D492046009501F016FE10B10220BDE87A
:10185000FC9F00BF94F83C00012801D10220F6E76C
:10186000012084F83C0000BF2068006800F00100FF
:1018700028B92068006840F00100216808602068ED
:10188000006820F4006021680860212084F83D0091
:10189000402084F83E0000202064C4F824A0A4F86E
:1018A0002AB0608D20853548E0624B464246394675
:1018B0002046CDE9006501F03BFD08B10120C6E7F7
:1018C00031E02A463146204601F0F6FE50B1206C48
:1018D000042805D12068006840F400702168086081
:1018E0000120B4E7606A007821680861606A401CE2
:1018F0006062208D401E2085608D401E60852068BE
:101900004069C0F3800070B1208D60B1606A0078DA
:1019100021680861606A401C6062208D401E20853D
:10192000608D401E6085208D0028CAD12A46314630
:10193000204601F06DFD00E01CE050B1206C042851
:1019400005D12068006840F400702168086001201B
:101950007DE72068006840F400702168086020205E
:1019600084F83D00002084F83E0000BF84F83C006D
:1019700000BF6CE702206AE7020010000000FFFFD2
:1019800010B504460949206888420DD1084800680E
:1019900020F400100649086040210648FFF706FAC7
:1019A00080210448FFF702FA10BD000000540040F7
:1019B000403802400004024010B586B004461421AD
:1019C00001A8FEF78FFD1B49206888422FD100BF78
:1019D000002000901848006840F002001649086096
:1019E0000846006800F00200009000BF00BFC02061
:1019F0000190122002900020039003200490042004
:101A0000059001A90D48FFF7A1FA00BF0020009042
:101A100009481030006840F4001007491031086090
:101A20000846006800F40010009000BF00BF06B038
:101A300010BD000000540040303802400004024055
:101A400070B504460CB9012070BD4CF6CC4021683D
:101A5000086045F2555021680860D4E900104860DC
:101A60002168A0688860FFF76DFB05460DE0FFF771
:101A700069FB401B41F60101884206D92068C06815
:101A800000F0030008B10320DEE72068C06800F022
:101A900003000028EBD14AF6AA2021680860002044
:101AA000D2E701464AF6AA200A6810600020704773
:101AB00003480068034909780844014908607047F1
:101AC000180000202000002010B50D48006840F4E8
:101AD00000700B4908600846006840F480600860A8
:101AE0000846006840F480700860032000F0A6F803
:101AF0000F2000F007F800F02BF8002010BD0000C8
:101B0000003C024070B504460E4800784FF47A71EC
:101B1000B1FBF0F00C490968B1FBF0F5284600F084
:101B20002FFC08B1012070BD102C07D200222146E5
:101B3000501E00F045F80548046001E00120F2E77E
:101B40000020F0E720000020240000201C000020DE
:101B500008B500BF002000900E48006840F48040A7
:101B60000C4908600846006800F48040009000BFFF
:101B700000BF00BF00200090081F006840F08050A8
:101B8000091F08600846006800F08050009000BF00
:101B900000BF08BD443802400146084600280DDB5E
:101BA00000BF00BF00F01F0301229A4043099B00C1
:101BB00003F1E023C3F8002100BF00BF00BF70475E
:101BC0002DE9F05F80460D461646002703F026FB00
:101BD000074639462A46334601F00700C0F1070A96
:101BE000BAF1040F02D94FF0040A01E0C0F1070A6C
:101BF000D14600F1040ABAF1070F02D24FF0000AF1
:101C000001E0A0F1030AD4464FF0010A0AFA09FAEA
:101C1000AAF1010A0AEA020A0AFA0CFA4FF0010BC9
:101C20000BFA0CFBABF1010B0BEA030B4AEA0B04BA
:101C30002146404603F0FAFABDE8F09F00BF00F0ED
:101C40000702064B19684FF6FF031940044B0B437C
:101C500043EA0221014B196000BF70470CED00E020
:101C60000000FA0570B504460D460CB9012070BDA0
:101C70005848006800F00700A84209D255490D7085
:101C80000846006800F00700A84201D00120EEE7F6
:101C9000207800F0020002281DD1207800F0040016
:101CA000042805D14C48006840F4E0504A490860D7
:101CB000207800F00800082805D14748006840F463
:101CC0006040454908604448006820F0F000A16881
:101CD000084341490860207800F00100A8B360681B
:101CE000012807D13C4808380068C0F34040B8B923
:101CF0000120BCE76068022802D06068032807D191
:101D0000354808380068C0F3406048B90120AEE7A4
:101D1000314808380068C0F3400008B90120A6E740
:101D20002D48006820F00300616808432A490860D4
:101D3000FFF708FA064609E0FFF704FA801B41F2B4
:101D40008831884202D9032091E707E022480068E1
:101D500000F00C006168B0EB810FEDD11D48006808
:101D600000F00700A84209D91A490D70084600681A
:101D700000F00700A84201D0012078E7207800F0A9
:101D80000400042807D11448006820F4E050E168FA
:101D9000084311490860207800F00800082808D19D
:101DA0000D48006820F46040216940EAC1000A49FA
:101DB000086000F03FF808490968C1F30311074AB9
:101DC000515CC8400649086006480068FFF79AFE63
:101DD00000204CE7003C024008380240BC6F00087D
:101DE000240000201C00002001480068704700000B
:101DF0002400002000B5FFF7F7FF04490968C1F38C
:101E00008221034A515CC84000BD000008380240EE
:101E1000CC6F000800B5FFF7E7FF04490968C1F37C
:101E20004231034A515CC84000BD000008380240FE
:101E3000CC6F00082DE9F047002400250026A146BC
:101E40002548006800F00C0020B1042805D00828BF
:101E50003AD105E0DFF8849039E0DFF8849036E08D
:101E60001D48001F006800F03F041B48001F006869
:101E700000F4800078B11A481749091F0968C1F3B6
:101E80008811A0FB01700146224600233846FEF768
:101E9000F3F905460EE011480F49091F0968C1F31F
:101EA0008811A0FB01700146224600233846FEF748
:101EB000E3F905460848001F0068C0F30140401CD4
:101EC0004600B5FBF6F902E0DFF8109000BF00BF56
:101ED0004846BDE8F0870000083802400024F400BE
:101EE00040787D01F8B504460CB90120F8BD207892
:101EF00000F00100002874D0F948006800F00C00E0
:101F000004280DD0F648006800F00C00082813D112
:101F1000F348001F006800F48000B0F5800F0BD17B
:101F2000EF4808380068C0F34040002859D0606886
:101F3000002856D10120D9E700BF6068B0F5803F86
:101F400008D1E7480838006840F48030E44908398F
:101F500008601EE06068B0F5A02F0DD1E048083899
:101F6000006840F48020DE490839086008460068AF
:101F700040F4803008600CE0D9480838006820F44C
:101F80008030D749083908600846006820F480206E
:101F9000086000BF606890B1FFF7D4F8054606E01E
:101FA000FFF7D0F8401B642801D903209EE7CC48F6
:101FB00008380068C0F340400028F1D011E0FFF776
:101FC000C1F8054606E0FFF7BDF8401B642801D9BB
:101FD00003208BE7C24808380068C0F3404000285F
:101FE000F1D1207800F0020002285FD1BC480068DF
:101FF00000F00C0058B1BA48006800F00C00082846
:102000001CD1B748001F006800F48000B0B9B44884
:1020100008380068C0F3400020B1E068012801D012
:10202000012063E7AE480838006820F0F800216915
:1020300040EAC100AA490839086037E0E06800B307
:102040000120A8490860FFF77DF8054606E0FFF784
:1020500079F8401B022801D9032047E7A048083837
:102060000068C0F340000028F1D09D48083800689F
:1020700020F0F800216940EAC10099490839086058
:1020800014E0002097490860FFF75CF8054606E079
:10209000FFF758F8401B022801D9032026E7904893
:1020A00008380068C0F340000028F1D1207800F023
:1020B000080008282CD16069A8B101208A4908606D
:1020C000FFF740F8054606E0FFF73CF8401B022802
:1020D00001D903200AE782486C300068C0F3400051
:1020E0000028F1D014E000207F490860FFF72AF8AB
:1020F000054606E0FFF726F8401B022801D9032019
:10210000F4E677486C300068C0F340000028F1D155
:10211000207800F00400042870D10027704838307F
:10212000006800F0805090B900BF002000906C481B
:102130003830006840F080506949383108600846FE
:10214000006800F08050009000BF00BF0127674882
:10215000006800F48070B0B96448006840F4807092
:1021600062490860FEF7EEFF054606E0FEF7EAFF6B
:10217000401B022801D90320B8E65C48006800F43F
:1021800080700028F2D000BFA068012808D1544810
:102190006830006840F001005149683108601DE076
:1021A000A06805280DD14E486830006840F0040052
:1021B0004B49683108600846006840F0010008603B
:1021C0000CE047486830006820F00100444968315D
:1021D00008600846006820F00400086000BFA0689E
:1021E000A8B1FEF7AFFF054609E0FEF7ABFF401BC5
:1021F00041F28831884202D9032077E626E0384848
:1022000068300068C0F340000028EED013E0FEF70D
:1022100099FF054608E0FEF795FF401B41F2883123
:10222000884201D9032061E62D4868300068C0F378
:1022300040000028EFD1012F07D12948383000682D
:1022400020F0805026493831086000BFA06900287E
:1022500045D02348006800F00C0008285DD0A06934
:10226000022845D100201F490866FEF76BFF05468E
:1022700006E0FEF767FF401B022801D9032035E680
:10228000174808380068C0F340600028F1D1D4E94D
:1022900007010843616A40EA81110122A06AC2EB8A
:1022A000500041EA00412C20005D41EA00600C49E9
:1022B000091F086001200B490866FEF743FF054629
:1022C00006E0FEF73FFF401B022801D903200DE680
:1022D000034808380068C0F340600028F1D049E0A6
:1022E0000838024000004742800E4742007000401C
:1022F000002021490866FEF725FF054606E0FEF7A7
:1023000021FF401B022801D90320EFE51B4800688C
:10231000C0F340600028F2D12CE0A069012800D170
:10232000E4E51648001D0668A069012820D006F4DF
:102330008001E06981421BD106F03F01206A8142A1
:1023400016D147F6C0703040616AB0EB811F0FD1E3
:1023500006F440310122A06AC2EB5000B1EB004FFD
:1023600006D106F070612C20005DB1EB006F01D04A
:102370000120BBE50020B9E50000474200380240DB
:1023800070B504462546681EB0F1807F01D3012058
:102390000FE0681E4FF0E02148610F214FF0FF3041
:1023A00002F044FF00204FF0E0218861072008611F
:1023B000002070BD7047704730B502460B4600BF25
:1023C00092F83C00012801D1022030BD012082F8A2
:1023D0003C0000BF022082F83D001068446810688D
:1023E000816824F070041868044310684460144D38
:1023F0001068A84213D01068B0F1804F0FD0114D73
:102400001068A8420BD0104D1068A84207D00F4D9D
:102410001068A84203D00E4D1068A84205D121F0E3
:1024200080015868014310688160012082F83D00F6
:1024300000BF002082F83C0000BF00BFC5E70000DD
:10244000000001400004004000080040000C004073
:102450000040014010B504460CB9012010BD94F8AD
:102460003D0028B9002084F83C00204600F026F802
:10247000022084F83D00211D206802F0EBF80120C5
:1024800084F8460000BF84F83E0001213F2001553A
:10249000402001554120015500BF00BF012084F8B4
:1024A000420043200155442001554520015500BFFD
:1024B000012084F83D000020D0E7000038B5044634
:1024C0003B492068884218D100BF0020009039485D
:1024D000006840F00400374908600846006800F0D2
:1024E0000400009000BF00BF002211461E20FFF72D
:1024F00067FB1E20FFF750FB59E02F4920688842F8
:1025000018D100BF002000902A48006840F0080061
:10251000284908600846006800F00800009000BFE5
:1025200000BF002211463220FFF74AFB3220FFF79E
:1025300033FB3CE02149206888421AD100BF0020CB
:1025400000901C48001D006840F400301949091D26
:1025500008600846006800F40030009000BF00BF2B
:10256000002211461920FFF72BFB1920FFF714FB5F
:102570001DE013492068884219D100BF0020009057
:102580000C48001D006840F480200A49091D0860BD
:102590000846006800F48020009000BF00BF0022C1
:1025A00011461A20FFF70CFB1A20FFF7F5FA38BD89
:1025B0000008004040380240000C00400044014048
:1025C00000480140014691F83D00012801D001205A
:1025D0007047022081F83D000868C06840F00100A3
:1025E0000B68D860164B0868984213D00868B0F1A1
:1025F000804F0FD0134B086898420BD0124B0868DD
:10260000984207D0114B0868984203D0104B0868D5
:1026100098420CD10868806800F00702062A0CD0A6
:102620000868006840F001000B68186005E0086861
:10263000006840F001000B6818600020C8E7000047
:10264000000001400004004000080040000C004071
:10265000004001402DE9F04104460D46002700BF2F
:1026600094F83C00012802D10220BDE8F08101204D
:1026700084F83C0000BF022084F83D002068866892
:1026800026F0770626F47F46206886602868502862
:1026900033D00CDC202850D004DC00284BD010288C
:1026A00051D149E0302849D040284CD139E0602848
:1026B0002DD0702807D0B0F5805F03D0B0F5005F53
:1026C00041D10DE041E0D5E902136A68206802F0CB
:1026D00017F82068866846F077062068866034E040
:1026E000D5E902136A68206802F00AF82068806859
:1026F00040F480402168886027E0EA6869682068C3
:1027000002F012F85021206802F005F81DE0EA6896
:102710006968206802F01BF86021206801F0FBFF67
:1027200013E0EA686968206801F0FEFF4021206834
:1027300001F0F1FF09E000BF00BF00BF2968206879
:1027400001F0E9FF01E0012700BF00BF012084F88C
:102750003D0000BF002084F83C0000BF384684E7FD
:10276000704770B504462068C5682068066906F0A1
:102770000200022819D105F00200022815D1401FDD
:1027800021680861012020772068806900F003003B
:1027900018B12046FFF7E4FF05E0204600F097F867
:1027A000204600F095F80020207706F00400042869
:1027B00019D105F00400042815D1C043216808612F
:1027C000022020772068806900F4407018B120460C
:1027D000FFF7C6FF05E0204600F079F8204600F03C
:1027E00077F80020207706F00800082819D105F0B6
:1027F0000800082815D1C04321680861042020770B
:102800002068C06900F0030018B12046FFF7A8FF58
:1028100005E0204600F05BF8204600F059F8002063
:10282000207706F01000102819D105F010001028AC
:1028300015D1C04321680861082020772068C0694D
:1028400000F4407018B12046FFF78AFF05E02046EB
:1028500000F03DF8204600F03BF80020207706F01D
:10286000010048B105F0010030B16FF001002168AE
:102870000861204600F02EF806F08000802809D17B
:1028800005F08000802805D1C043216808612046FA
:10289000FFF790FD06F04000402809D105F0400008
:1028A000402805D1C04321680861204600F056F851
:1028B00006F02000202809D105F02000202805D1AD
:1028C000C043216808612046FFF775FD70BD704761
:1028D0007047000010B5044619492068884223D18A
:1028E00001211848FEF716FC01281AD11648007875
:1028F00020B1012806D002280ED10CE00120124997
:1029000008700DE04FF400511048FEF70BFC022058
:102910000D49087004E003E000200B49087000BF77
:1029200002E000200849087009492068884206D161
:102930000848007818B908A1002001F025FC10BD56
:102940000044014000000240000000200008024056
:10295000000C00400100002077770A007047F8B5AE
:1029600004460D46164694F8420020282DD105B1A4
:102970000EB90120F8BD01202063002060633246BB
:102980002946204602F0CEF90746206B012819D1CE
:1029900000BF002000902068006800902068406818
:1029A000009000BF00BF00BF00BF21680C3151E89C
:1029B000001F41F0100021680C3141E80002002A9C
:1029C000F3D100E001273846D4E70220D2E7000027
:1029D00070B504460D4607492068884209D1002099
:1029E000054948551E220548FFF7B9FF0120044953
:1029F000487070BD001401409C0400209402002027
:102A000002000020704700002DE9F84F04462068BE
:102A100005682068C668206847694FF00009CA4603
:102A200005F00F09B9F1000F0AD105F0200038B107
:102A300006F0200020B1204601F0DFFFBDE8F88F4E
:102A4000B9F1000F7CD007F0010018B906F49070BE
:102A5000002875D005F0010030B106F4807018B17F
:102A6000606C40F00100606405F0040030B107F0D4
:102A7000010018B1606C40F00200606405F00200D3
:102A800030B107F0010018B1606C40F004006064E0
:102A900005F0080048B106F0200010B907F0010069
:102AA00018B1606C40F008006064606C002846D08B
:102AB00005F0200028B106F0200010B1204601F0FA
:102AC0009CFF20684069C0F3801A606C00F0080029
:102AD00010B9BAF1000F2DD0204601F035FF206863
:102AE000406900F04000402820D100BF00BF2168AD
:102AF000143151E8001F21F040002168143141E8F1
:102B00000002002AF3D100BFE06B50B17F48E16BB7
:102B10000865E06BFDF742FF88B1E06B016D884707
:102B20000DE02046FFF76EFF09E009E02046FFF7C1
:102B300069FF04E02046FFF765FF002060647DE741
:102B4000206B012878D105F01000002874D006F021
:102B500010000028FAD000BF002000902068006814
:102B6000009020684068009000BF00BF2068406966
:102B700000F04000402870D1E06B006840681FFA08
:102B800080F8B8F1000F58D0A08D404555DDA4F86D
:102B90002E80E06BC069B0F5807F43D000BF00BFDE
:102BA00021680C3151E8001F21F4807021680C313C
:102BB00041E80002002AF3D100BF00BF00BF216836
:102BC000143151E8001F21F001002168143141E85F
:102BD0000002002AF3D100BF00BF00BF21681431FA
:102BE00051E8001F21F040002168143141E8000243
:102BF000002AF3D100BF202084F842000020206387
:102C000000BF00BF21680C3151E8001F21F0100007
:102C100021680C3141E80002002AF3D100BFE06BCB
:102C2000FDF766FE02206063A08DE28D801A81B2FE
:102C30002046FFF7CDFE0EE052E0A08D40450AD1C0
:102C4000E06BC069B0F5807F05D102206063A18D83
:102C50002046FFF7BDFEF1E6FFE7A08DE18D401AAB
:102C60001FFA80F8E08DD0B3B8F1000F37D000BF65
:102C700000BF21680C3151E8001F21F490702168D9
:102C80000C3141E80002002AF3D100BF00BF00BFB1
:102C90002168143151E8001F21F00100216814312E
:102CA00041E80002002AF3D100BF202084F842004E
:102CB0000020206300BF00BF21680C3151E8001FD5
:102CC00021F0100021680C3141E80002002AF3D104
:102CD00000BF0220606341462046FFF779FEADE663
:102CE00005F0800030B106F0800018B1204602F0F7
:102CF00085F8A3E605F0400030B106F0400018B1B9
:102D0000204601F057FE99E600BF97E6A947000864
:102D100010B504460CB9012010BDA06900B100E057
:102D200000BF94F8410028B9002084F840002046F4
:102D300000F02AF8242084F841002068C06820F4BC
:102D400000502168C860204601F0D6FE2068006966
:102D500020F49040216808612068406920F02A0032
:102D6000216848612068C06840F400502168C8604C
:102D700000206064202084F8410084F84200002094
:102D8000606300BFC8E7000010B586B00446142198
:102D900001A8FDF7A7FB7E492068884279D100BFD2
:102DA000002000907B48006840F0100079490860DE
:102DB0000846006800F01000009000BF00BF00BF90
:102DC0000020009073481438006840F001007149F9
:102DD000143908600846006800F00100009000BF48
:102DE00000BF4FF4C06001900220029000200390C9
:102DF000032004900720059001A96748FEF7A6F874
:102E00006648674908604FF00060486040216448A8
:102E100081600021C1604FF4806101610021416146
:102E20008161C16101624162FDF7ECFE08B1FDF70D
:102E3000EDFC00BF5A48A063846300BF5748783850
:102E4000584908604FF00060486000215548816093
:102E5000C1604FF4806101610021416181614FF4E3
:102E60008071C161002101624162FDF7CBFE08B1B2
:102E7000FDF7CCFC00BF4B48E063846300BF002239
:102E800011462520FEF79CFE2520FEF785FE7CE0FE
:102E9000FFE745492068884277D100BF00200090B5
:102EA0003C48006840F020003A4908600846006845
:102EB00000F02000009000BF00BF00BF0020009085
:102EC00034481438006840F0010032491439086071
:102ED0000846006800F00100009000BF00BF4FF4FA
:102EE000C050019002200290002003900320049023
:102EF0000820059001A92848FEF728F827489038AF
:102F00002A49086080054860002128488160C16026
:102F10004FF4806101610021416181614FF4807152
:102F2000C161002101624162FDF76CFE08B1FDF74D
:102F30006DFC00BF1D48E063846300BF174818386C
:102F40001B4908604FF020604860402118488160AC
:102F50000021C1604FF48061016100214161816104
:102F6000C16101624162FDF74DFE08B1FDF74EFC03
:102F700000BF0F48A063846300BF002211464720B2
:102F8000FEF71EFE4720FEF707FE06B010BD00004C
:102F9000001001404438024000000240B864024082
:102FA000DC0200203C030020001401409C030020B0
:102FB000FC03002070477047F7B50446154694F8A7
:102FC000410020283ED1019800B10DB90120FEBD7D
:102FD00001982062A584E58400206064212084F8A3
:102FE00041001948A16BC8631848A16B08641848D0
:102FF000A16BC8640020A16B086501AE23681A1D8F
:1030000031682B46A06BFDF773FE30B11020606471
:10301000202084F841000120D9E76FF040002168AA
:10302000086000BF00BF2168143151E8001F41F063
:1030300080002168143141E80002002AF3D100BF6A
:103040000020C4E70220C2E7E34800083B4900082B
:10305000BB47000810B5044607492068884209D1DB
:1030600006490748FDF702FC20B10A22034905483A
:10307000FFF7A2FF10BD000000100140A00F0020CC
:10308000E00E00204C020020704700BFFEE7000069
:103090002DE9F04704461546DDF820800020086041
:1030A000186000BF65E0394A02EB00121268A242C4
:1030B00000D05DE0DFF8D4A00AEB001A9AF80820EF
:1030C0004FEAE27A02EB5A7A4FEAEA0AA2EBCA0A1C
:1030D0004FEA8A06DFF8B4A00AEB001A9AF8082033
:1030E0004FEAE27A02EB5A7A4FEAEA07274A02EB02
:1030F00000125268203252F827C0244A02EB001214
:103100005268D2F800902CFA06F202F00F02042A5C
:103110002DD11E4A02EB0012127A520029FA02F255
:1031200002F00302022A22D1184A02EB0012D268EE
:1031300072B1164A02EB001252680A60134A02EB9F
:10314000001292F808A0012202FA0AF22A800EE088
:103150000E4A02EB001252681A600C4A02EB00128F
:1031600092F808A0012202FA0AF2A8F8002000BF93
:10317000401C082897DB086820B1186810B10020AF
:10318000BDE8F0874FF0FF30FAE70000307C000820
:10319000014608684069C0F38020B0B16FF48060D8
:1031A0000A68506100200863202081F83D0000205B
:1031B00081F83E00086C40F00400086400BF002065
:1031C00081F83C0000BF012070470020FCE70000B0
:1031D0002DE9F84304460F4615469946DDE9088671
:1031E0002068006840F480602168086020680068FA
:1031F00040F4807021680860434600224FF00111BE
:103200002046009600F037F960B12068006800F4AD
:103210008070B0F5807F02D14FF4007020640320ED
:10322000BDE8F88307F0FE00216808613346424696
:103230003E49204600F07EF908B10120F0E700BFCA
:10324000002000902068406900902068806900900C
:1032500000BF00BF32464146204600F02DFA50B173
:10326000206C042805D12068006840F400702168B3
:1032700008600120D4E7B9F1010F03D1E8B2216859
:10328000086117E0C5F3072021680861324641460E
:10329000204600F011FA50B1206C042805D12068B6
:1032A000006840F40070216808600120B8E7E8B2C7
:1032B0002168086132464146204600F0FDF950B1D0
:1032C000206C042805D12068006840F40070216853
:1032D00008600120A4E72068006840F4807021683D
:1032E0000860434600224FF001112046009600F08E
:1032F000C2F858B12068006800F48070B0F5807F93
:1033000002D14FF400702064032089E7F8B240F046
:10331000010021680861334642460449204600F016
:1033200009F908B101207BE7002079E702000100DC
:103330002DE9F8430446884615469946DDE90867B5
:103340002068006840F480702168086033460022DD
:103350004FF001112046009700F08DF860B1206811
:10336000006800F48070B0F5807F02D14FF40070E7
:1033700020640320BDE8F88308F0FE00216808619E
:103380003B4632462149204600F0D4F808B10120DE
:10339000F0E700BF0020009020684069009020689E
:1033A0008069009000BF00BF3A463146204600F0D9
:1033B00083F950B1206C042805D12068006840F4DE
:1033C0000070216808600120D4E7B9F1010F03D132
:1033D000E8B22168086117E0C5F307202168086199
:1033E0003A463146204600F067F950B1206C042877
:1033F00005D12068006840F4007021680860012051
:10340000B8E7E8B2216808610020B3E702000100D4
:1034100070B504460D46164625E02046FFF7B8FE77
:1034200008B1012070BD681CE8B1FDF78BFE801B60
:10343000A84200D8BDB920684069C0F3800090B9A7
:1034400000202063202084F83D00002084F83E0006
:10345000206C40F02000206400BF002084F83C0075
:1034600000BF0120DEE720684069C0F3800000282B
:10347000D3D00020D6E72DE9F04104460D4617468B
:103480001E46DDF8188038E0701CA8B3FDF75AFE20
:10349000A0EB0800B04200D876BBC5F30740012876
:1034A0000AD120684069A9B20840A9B2884201D176
:1034B00001200BE0002009E020688069A9B20840E3
:1034C000A9B2884201D1012000E00020B84214D105
:1034D00000202063202084F83D00002084F83E0076
:1034E000206C40F02000206400BF002084F83C00E5
:1034F00000BF0120BDE8F081FFE7C5F307400128C8
:103500000AD120684069A9B20840A9B2884201D115
:1035100001200BE0002009E020688069A9B2084082
:10352000A9B2884201D1012000E00020B842ABD00E
:103530000020DFE72DE9F04104460D4616461F4600
:1035400058E020684069C0F38020E8B12068006836
:1035500040F40070216808606FF480602168486161
:1035600000202063202084F83D00002084F83E00E5
:10357000206C40F00400206400BF002084F83C0070
:1035800000BF0120BDE8F081701C90B3FDF7DAFDAB
:10359000C01BB04200D866BBC5F3074001280AD162
:1035A00020684069A9B20840A9B2884201D101202F
:1035B0000BE0002009E020688069A9B20840A9B2A8
:1035C000884201D1012000E0002090B90020206352
:1035D000202084F83D00002084F83E00206C40F05C
:1035E0002000206400BF002084F83C0000BF0120C0
:1035F000C8E7FFE7C5F3074001280AD12068406902
:10360000A9B20840A9B2884201D101200BE00020F4
:1036100009E020688069A9B20840A9B2884201D1B6
:10362000012000E0002000288BD00020AAE770B520
:1036300004460D46164637E020684069C0F3001086
:10364000A0B16FF0100021684861002020632020A5
:1036500084F83D00002084F83E00206C206400BF08
:10366000002084F83C0000BF012070BDFDF76AFD1A
:10367000801BA84200D8BDB920684069C0F3801003
:1036800090B900202063202084F83D00002084F8B9
:103690003E00206C40F02000206400BF002084F831
:1036A0003C0000BF0120E0E720684069C0F38010C3
:1036B0000028C1D00020D8E770B504460D46164654
:1036C00025E02046FFF764FD08B1012070BD681CAD
:1036D000E8B1FDF737FD801BA84200D8BDB92068CE
:1036E0004069C0F3C01090B900202063202084F806
:1036F0003D00002084F83E00206C40F02000206453
:1037000000BF002084F83C0000BF0120DEE72068F5
:103710004069C0F3C0100028D3D00020D6E70000D5
:1037200010B50121014801F026F810BD5C7D0008AC
:1037300010B50121014801F01EF810BD507D0008B0
:1037400010B50121014801F016F810BD447D0008B4
:10375000F0B52DED0C8B85B004460D46164604AB36
:1037600003AA02A901A800F09DF8074627B1384630
:1037700005B0BDEC0C8BF0BD9DED010AB8EEC00AA2
:10378000DFED440A80EE208A9DED020AB8EEC00A01
:10379000DFED400AC0EE208A9DED030AB8EEC00AB4
:1037A000DFED3C0A80EE209A9DED040AB8EEC00AD7
:1037B000DFED380AC0EE209A28EE08BA68EEA8BA03
:1037C00029EE09CA69EEA9CA29EE291A08EE281AB3
:1037D000F0EE001A21EE211AB0EE410A3BEE6B1A10
:1037E00031EE4C1A31EE2C1AF0EE410A01F0C8FD10
:1037F000B0EE40DA28EEA90A08EE490AF8EE000A0F
:1038000060EE20AAB7EE000AF4EEC0AAF1EE10FABC
:1038100002DD9FED21AA0FE0BFEE000AF4EEC0AA80
:10382000F1EE10FA02D29FED1DAA05E0B0EE6A0A91
:1038300001F010FDB0EE40AA28EE891A08EE291A10
:10384000F0EE001A21EE211AB0EE410A3BEE2B1ADF
:1038500031EE4C1A31EE6C1AF0EE410A01F090FD97
:10386000F0EE40DA2CB19FED0E0A2AEE000A84ED4C
:10387000000A2DB19FED0A0A2DEE000A85ED000A1F
:103880002EB19FED070A2DEE800A86ED000A00207A
:103890006EE700000000804EDB0FC93FDB0FC9BFA1
:1038A000E12E65422DE9F0418EB004460D461646E4
:1038B0001F4604A809A903AB05AACDE900100AA96F
:1038C0000CA802F04FF88046B8F1000F04D04FF07A
:1038D000FF300EB0BDE8F0810CB1059820600DB14D
:1038E000069828600EB1079830600FB108983860CC
:1038F0000020EEE738B500F047F8044614B16FF049
:10390000030038BD02F038FD044614B14FF0FF301B
:10391000F7E7782003F03AFA782002F0CFFC642031
:1039200003F0E6F902F012F8044614B16FF001005A
:10393000E7E7642002F000F9702001F0AFFE4FF4D9
:10394000C875280A00906A4601214FF4B47003F04C
:1039500085FAE8B200906A4601214FF4B57003F091
:103960007DFA022002F020F9002003F077F901200F
:1039700003F03EF9012003F0AFF8044614B16FF0F4
:103980000200BEE70020BCE77FB51F4A07CA01ABB3
:1039900007C31EA00068009000242FE001A850F883
:1039A0002400006800B928E01948006819490A5D38
:1039B00001219140084000B91FE000251AE01DF8E0
:1039C0000520510001AA52F8240032230322FDF7FA
:1039D000C5FC70B901A850F824000F490860601CAC
:1039E0000E4908601DF805000D490870002004B05C
:1039F00070BD6D1C022DE2DB00BF641C032CCDDB0F
:103A00004FF0FF30F3E70000B47C00086869000065
:103A100040380240B07C00085400002058000020CC
:103A20005C00002010B58AB0002009900890079033
:103A30000690142101A8FCF755FD4248006830B9F2
:103A4000FFF7A2FF18B14FF0FF300AB010BD06A873
:103A500008AB07AA09A900903A480068FFF718FBCD
:103A600010B14FF0FF30F0E737480068FDF770FB0A
:103A7000012002900020039003200490BDF81C0058
:103A8000019001A90998FDF761FABDF818000190AD
:103A900001A90898FDF75AFA0122BDF81C100998EF
:103AA000FDF74AFB0122BDF818100898FDF744FB0A
:103AB0000120FDF767F9002412E00022BDF81C1078
:103AC0000998FDF739FB0120FDF75CF90122BDF8EB
:103AD0001C100998FDF730FB0120FDF753F9641C19
:103AE000092CEADB0022BDF818100898FDF724FB2A
:103AF0000120FDF747F90122BDF81C100998FDF7D8
:103B00001BFB0120FDF73EF90122BDF818100898B3
:103B1000FDF712FB0120FDF735F912200290042079
:103B20000590BDF81C00019001A90998FDF70EFA57
:103B3000BDF81800019001A90898FDF707FA0020C8
:103B400083E700005800002054000020FEB5044622
:103B50000D4616461F460B48006810B94FF0FF305F
:103B6000FEBD6420610001232A46CDE90076029063
:103B700004480068FDF7CEFC08B90020F0E74FF0DC
:103B8000FF30EDE754000020FEB504460D46164612
:103B90001F460B48006810B94FF0FF30FEBD64208F
:103BA000610001232A46CDE90076029004480068AE
:103BB000FDF734FE08B90020F0E74FF0FF30EDE7E5
:103BC0005400002008B500BF00200090164800688F
:103BD00040F48000144908600846006800F4800042
:103BE000009000BF00BF002211463920FDF7E8FF1A
:103BF0003920FDF7D1FF002211463A20FDF7E0FF02
:103C00003A20FDF7C9FF002211464520FDF7D8FFF5
:103C10004520FDF7C1FF002211464620FDF7D0FFE9
:103C20004620FDF7B9FF08BD3038024000B587B027
:103C3000142102A8FCF756FC00BF00200190354873
:103C4000006840F00400334908600846006800F04E
:103C50000400019000BF00BF00BF00200190084693
:103C6000006840F0800008600846006800F08000AE
:103C7000019000BF00BF00BF00200190084600680F
:103C800040F0010008600846006800F00100019063
:103C900000BF00BF00BF002001900846006840F050
:103CA000020008600846006800F00200019000BFB2
:103CB00000BF00224FF400511748FDF73DFA4FF4C2
:103CC000005002900120039000200490059002A96A
:103CD0001148FDF73BF90120029000200390049069
:103CE00002A90E48FDF732F94FF4004002904FF45C
:103CF000881003900220049002A90948FDF726F9D4
:103D0000002201212820FDF75BFF2820FDF744FF5A
:103D100007B000BD303802400008024000000240F9
:103D20000004024010B50B480B4908600B4848607E
:103D3000002109488160C1604FF480410161002188
:103D400041618161C1610162FDF720FA08B1FCF7B0
:103D50005DFD10BD00540040CC000020A086010095
:103D600010B50748074908600220486040F6FF7117
:103D700004488160FDF764FE08B1FCF747FD10BD03
:103D8000003000402001002010B50A480A490860B0
:103D900042F20F704860002107488160C721C1606E
:103DA000002101618161FEF755FB08B1FCF72EFD92
:103DB00010BD000000440140BC01002010B50A48BD
:103DC0000A49086042F20F7048600021074881608C
:103DD0009521C160002101618161FEF73BFB08B1C3
:103DE000FCF714FD10BD0000004801400402002053
:103DF00000B587B0002003900490059006900190D4
:103E0000029015481549086042F20F704860002181
:103E1000124881604FF47A71C160002101618161B3
:103E2000FEF718FB08B1FCF7F1FC4FF4805003904B
:103E300003A90A48FEF70EFC08B1FCF7E7FC0020D6
:103E40000190029001A90548FEF7B6FA08B1FCF707
:103E5000DDFC07B000BD0000000800402C01002080
:103E600000B587B000200390049005900690019063
:103E7000029014481449086042F20F704860002113
:103E8000114881606421C160002101618161FEF7F8
:103E9000E1FA08B1FCF7BAFC4FF48050039003A993
:103EA0000948FEF7D7FB08B1FCF7B0FC00200190F1
:103EB000029001A90448FEF77FFA08B1FCF7A6FCBE
:103EC00007B000BD000C00407401002010B50B4885
:103ED0000B4908604FF4E1304860002108488160D8
:103EE000C16001610C21416100218161C161FEF766
:103EF0000FFF08B1FCF78AFC10BD00000010014064
:103F00004C02002010B50B480B4908604FF4E1301B
:103F10004860002108488160C16001610C21416155
:103F200000218161C161FEF7F3FE08B1FCF76EFC70
:103F300010BD0000001401409402002000BFFEE705
:103F400010B545480078052820D2DFE800F00320AE
:103F500031445500002016E000EB80013F4A52F842
:103F60002110097801290DD13D4A107000EB800124
:103F70003A4A02EB8101097C3A4A11700121364A22
:103F8000117002E0401C0428E6D300BF61E0344910
:103F9000097801EB8101314A02EB810148688047D1
:103FA000FDF7D0F83049086002202B49087050E036
:103FB000FDF7C8F82C490968401A2949097801EB2E
:103FC0008101264A02EB8101C968884202D303209D
:103FD000214908703DE02249097801EB81011F4A1F
:103FE00002EB810188688047FDF7ACF81E49086044
:103FF0000420194908702CE0FDF7A4F81A49096853
:10400000401A1749097801EB8101144A02EB81013A
:10401000C96888421CD313480078401E11490870B3
:104020000020114908600F480078002803DD0120B6
:10403000094908700CE000F01DF8002006490870DE
:104040000749097801EB8101044A52F821100870F0
:1040500000BF00BF10BD0000C000002070000020A5
:10406000C1000020C8000020C400002000BFFEE7FF
:104070007047000010B51221014800F07CFB10BD14
:10408000C07C000810B50121014800F074FB10BD90
:10409000627D000810B50121014800F06CFB10BDE5
:1040A000567D000810B50121014800F064FB10BDE9
:1040B0004A7D000810B500F0E3FE10BD2DE9F04187
:1040C00004460D46164600BF0D48007808B900F0BA
:1040D000D7FE00BFEFF311800746202080F3118840
:1040E00000BF00BF32462946204600F00BF880464C
:1040F000F8B280F3118800BF00BF4046BDE8F081F0
:10410000BC0400202DE9F047074688461646C24603
:1041100007EB47011B4800EBC109D9F8140020B197
:10412000012811D0022826D11EE0484600F0E8FE02
:104130000546B54201D2002405E0344632465146D8
:10414000484601F032F818E0484600F0D9FE05462E
:10415000B54201D2284600E0304604462246514688
:10416000484601F022F808E032465146484600F041
:10417000E3FF044601E0002400BF00BF2046BDE885
:10418000F0870000D40400200FB438B5044606A818
:1041900000906A462046059900F007F80546002081
:1041A0000090284638BC5DF814FB2DE9F04F99B01B
:1041B00082460D46144603A8149040201590002016
:1041C0001690CDF860A0179000BF2E786D1C06B930
:1041D000DDE0252E79D100274FF0010900BF2E78B0
:1041E000232E12D02B2E0CD02D2E02D0302E10D1FB
:1041F00003E047F001076D1C0EE047F002076D1C5D
:104200000AE047F004076D1C06E047F008076D1C44
:1042100002E04FF0000900BF00BFB9F1000FDED18E
:104220004FF0000800BF2E78302E01DB392E00DD64
:1042300007E06D1CA6F1300008EB880100EB410897
:10424000F1E700BF002013902E782E2E12D16D1CA6
:1042500000BF2E78302E01DB392E00DD09E06D1C09
:10426000A6F13000139901EB810100EB410013909E
:10427000EFE700BF2E7800BF6C2E01D0682E02D170
:104280006D1C2E7800E000E0F6E700BF702E5DD0D8
:1042900008DC252E6AD0582E35D0632E09D0642E26
:1042A00069D113E0732E3CD0752E1DD0782E62D1CB
:1042B00028E02168081D2060D1F8009009F0FF0B6C
:1042C000594614A800F016FF56E058E02168081D72
:1042D0002060D1F80090CDE900870A22494614A851
:1042E000139B00F01BFE47E02168081D2060D1F8F9
:1042F0000090CDE900870A22494614A8139B00F0DC
:1043000083FE39E000BF2168081D2060D1F80090CD
:10431000CDE900871022494614A8139B00F074FED3
:104320002AE02168081D2060D1F800B000BF9BF88A
:1043300000600BF1010B06B906E0314614A800F04D
:10434000D9FE17980028F2DA00BF15E02168081D91
:104350002060D1F80090002008210B461022CDE902
:104360000010494614A800F04FFE05E0252114A8CE
:1043700000F0C0FE00E000BF00BF6D1C03E031464E
:1043800014A800F0B7FE17980028BFF61EAF00BFB4
:10439000179800280ADD169820B103A95046169AEE
:1043A000FFF78CFEDDE9161008441790179819B036
:1043B000BDE8F08F70470000FEB506460C46154676
:1043C00055208DF800008DF801008DF8026007205F
:1043D0008DF8030001208DF80400E0B28DF805008F
:1043E000200A8DF80600E8B28DF80700280A8DF83B
:1043F00008000027022004E01DF8001039448FB2A5
:10440000401C0828F8DDF843C0B28DF80900694661
:104410000948FCF74CFA70B1084890F84100202890
:1044200009D107490448FCF721FA20B10A220449BE
:104430000248FEF7C1FDFEBDE00E00204C02002048
:10444000A00F002010B5044613A12046FCF772F817
:1044500018B901201449887019E014A12046FCF70E
:1044600069F818B901201049C87010E013A120465E
:10447000FCF760F818B901200B49087107E012A198
:104480002046FCF757F810B90120074948711E2152
:104490002046FCF705F810BD77616C6B5F666F72A4
:1044A00077617264000000000200002077616C6B8D
:1044B0005F6261636B776172640000006D6F7665A7
:1044C0005F746F6C656674006D6F76655F746F7294
:1044D000696768740000000070B50546002428E094
:1044E00004EB8401154A02EBC1002946FCF722F8CF
:1044F000F0B904EB8400114901EBC00090F82500ED
:1045000090B904EB84020B4603EBC20292F824102C
:1045100004EB840203EBC202106A00F02CF91E21A6
:104520002846FBF7BDFF70BD2846FFF78BFFFAE773
:10453000641C162CD4D300BFF5E70000947D00085E
:1045400010B5FDF7B5FA10BD00B593B0302107A83E
:10455000FBF7C8FF142102A8FBF7C4FF00BF00202F
:1045600001902548006840F08050234908600846C3
:10457000006800F08050019000BF00BF00BF002025
:1045800001901E48006840F440401C4908600846FD
:10459000006800F44040019000BF00BF0920079070
:1045A0004FF48030089001200C9002200D904105BE
:1045B0000E9119210F91C82110910221119104210E
:1045C000129107A8FDF78EFC08B1FCF71FF90F2028
:1045D000029002200390002004904FF48050059038
:1045E00000200690032102A8FDF73CFB08B1FCF770
:1045F0000DF913B000BD00004038024000700040CB
:104600000348006840F470000149086070470000EA
:1046100088ED00E010B50248FEF7A3F810BD0000D9
:104620000402002010B50248FEF79BF810BD000000
:10463000BC01002010B50248FEF793F810BD000041
:104640002C01002010B50248FEF78BF810BD0000C9
:104650007401002010B50268224B98420BD0B0F1D3
:10466000804F08D0204B984205D0204B984202D072
:104670001F4B984203D122F070024B681A43194B2A
:10468000984214D0B0F1804F11D0174B98420ED001
:10469000164B98420BD0164B984208D0154B9842B7
:1046A00005D0154B984202D0144B984203D122F406
:1046B0004072CB681A4322F080034C6943EA04023B
:1046C0008B68C3620B688362064B984201D10B6909
:1046D0000363036843F00403036001234361026042
:1046E00010BD000000000140000400400008004030
:1046F000000C0040004001400044014000480140DF
:1047000030B50C46816821F47F4142EA03252543F8
:104710002943816030BD0A46816821F0700142F072
:10472000070319438160704730B50B461446026A8F
:10473000056A25F001050562816921F0F00141EA71
:10474000041122F00A021A438161026230BD30B5C1
:104750000B461446026A056A25F010050562816958
:1047600021F4704141EA043122F0A00242EA03122E
:104770008161026230BD70B505460E46002410E02E
:1047800004EB440305EB43039A8804EB440305EB75
:104790004303598804EB440315F81300FFF70CFE9C
:1047A000641CB442ECDB70BD70B50446A56B002000
:1047B000E8852846FEF726F970BD70B50646002547
:1047C000B46B20684069C0F3C01594F841002128FB
:1047D00005D125B10020E084204600F0FBF82068D8
:1047E0004069C0F3801594F84200222805D125B114
:1047F0000020E085204600F0A7F8606C40F0100033
:1048000060642046FEF7FEF870BD70B50546AC6BDF
:104810002868006800F48070002842D1E08500BF5D
:1048200000BF21680C3151E8001F21F4807021681D
:104830000C3141E80002002AF3D100BF00BF00BFE5
:104840002168143151E8001F21F001002168143162
:1048500041E80002002AF3D100BF00BF00BF216879
:10486000143151E8001F21F040002168143141E863
:104870000002002AF3D100BF202084F84200206B00
:1048800001280ED100BF00BF21680C3151E8001F84
:1048900021F0100021680C3141E80002002AF3D118
:1048A00000BF00206063206B012804D1A18D204649
:1048B000FEF78EF802E02046FEF77CFB70BD70B577
:1048C0000546AC6B01206063206B012805D1A08DEB
:1048D00041082046FEF77CF802E02046FEF76BFB1D
:1048E00070BD70B50546AC6B2868006800F4807038
:1048F000F8B90020E08400BF00BF2168143151E8FE
:10490000001F21F080002168143141E80002002AD4
:10491000F3D100BF00BF00BF21680C3151E8001F78
:1049200041F0400021680C3141E80002002AF3D137
:1049300002E02046FEF78EFB70BD70B50446A56B05
:104940002846FEF7A1FB70BD00BF00BF02680C3215
:1049500052E8002F22F4907102680C3242E80013F2
:10496000002BF3D100BF00BF00BF0268143252E831
:10497000002F22F001010268143242E80013002BDC
:10498000F3D100BF016B01290ED100BF00BF026847
:104990000C3252E8002F22F0100102680C3242E87B
:1049A0000013002BF3D100BF202180F8421000211A
:1049B0000163704710B504462068C06820F04000CD
:1049C0002168C860202084F841002046FEF742FBA1
:1049D000002010BD00BF00BF02680C3252E8002F5B
:1049E00022F0C00102680C3242E80013002BF3D120
:1049F00000BF202180F841107047F8B5044600251B
:104A0000002694F84200222873D1A068B0F5805F98
:104A10000BD1206948B9A66A20684068C0F3080035
:104A20003080A06A801CA06214E0A56AA068B0F57E
:104A3000805F03D0A06828B9206918B92068406851
:104A4000287004E02068406800F07F002870A06AA9
:104A5000401CA062E08D401E80B2E085002846D157
:104A60002068C06820F020002168C8602068C06805
:104A700020F480702168C8602068406920F001003F
:104A800021684861202084F8420000206063206B88
:104A9000012826D10020206300BF00BF21680C310F
:104AA00051E8001F21F0100021680C3141E800029C
:104AB000002AF3D100BF2068006800F01000102821
:104AC0000AD100BF00200090206800680090206894
:104AD0004068009000BF00BFA18D2046FDF778FF21
:104AE00002E02046FEF766FA0020F8BD01E0002053
:104AF000FBE70220F9E700002DE9F84F04462068A3
:104B0000006920F44050E168084321680861216988
:104B1000A068084361690843E16908430090206880
:104B2000C06849F20C618843009908432168C86055
:104B30002068406920F44070A169084321684861F9
:104B400076492068884203D075492068884203D19D
:104B5000FDF760F9814602E0FDF74CF98146E06916
:104B6000B0F5004F6CD102206168A0FB01500346F4
:104B70001920A9FB007001462A463846FBF77CFB4A
:104B80006421B0FBF1F04FEA001A02206168A0FB3B
:104B900001510B461920A9FB00712A463846FBF744
:104BA0006BFB834602206168A0FB0150034619207D
:104BB000A9FB00712A463846FBF75EFB6421B0FB77
:104BC000F1F000EBC00101EB0010ABEB80003221F3
:104BD00001EBC0006421B0FBF1F000F0F8000AEB3B
:104BE000400A02206168A0FB015003461920A9FB7E
:104BF000007001462A463846FBF73EFB83460220FA
:104C00006168A0FB015003461920A9FB00712A46E8
:104C10003846FBF731FB6421B0FBF1F000EBC0013B
:104C200001EB0010ABEB8000322101EBC0006421EE
:104C3000B0FBF1F000F007005044216888606AE0A2
:104C400004206168A0FB015003461920A9FB0070F5
:104C500001462A463846FBF70FFB8246042061686E
:104C6000A0FB015003461920A9FB007001462A460B
:104C70003846FBF701FB6421B0FBF1F000EBC0010B
:104C800001EB0010AAEB8000322101EB001064213F
:104C9000B0FBF1F000F0F00A04206168A0FB0170A5
:104CA00003461920A9FB00513A462846FBF7E4FACF
:104CB0006421B0FBF1F00AEB001A04206168A0FB4C
:104CC00001510B461920A9FB00712A463846FBF713
:104CD000D3FA834604206168A0FB015003461920E3
:104CE000A9FB007001462A463846FBF7C5FA642145
:104CF000B0FBF1F000EBC00101EB0010ABEB80006A
:104D0000322101EB00106421B0FBF1F000F00F0044
:104D1000504421688860BDE8F88F00000010014011
:104D20000014014077B581B0044615460298A06290
:104D3000A58500206064222084F842002C48E16BA5
:104D4000C8632C48E16B08642B48E16BC864002001
:104D5000E16B086502AE32682368191D2B46E06BD3
:104D6000FBF7C6FF38B110206064202084F84200B1
:104D7000012004B070BD00BF0020009020680068D2
:104D8000009020684068009000BF00BF206970B1AB
:104D900000BF00BF21680C3151E8001F41F4807052
:104DA00021680C3141E80002002AF3D100BF00BFA6
:104DB00000BF2168143151E8001F41F00100216853
:104DC000143141E80002002AF3D100BF00BF00BF48
:104DD0002168143151E8001F41F04000216814316E
:104DE00041E80002002AF3D100BF0020C1E7000023
:104DF0000B480008BF480008BB470008014691F86F
:104E00004100212828D18868B0F5805F0BD108695E
:104E100048B90A6A1088C0F308000B685860086A2D
:104E2000801C086205E00B6A581C086218780B6841
:104E30005860C88C401E80B2C88458B90868C068E1
:104E400020F080000B68D8600868C06840F040001F
:104E50000B68D860002070470220FCE710B50248BC
:104E6000FDF7D2FD10BD00004C02002010B5024835
:104E7000FDF7CAFD10BD00009402002000BFFEE750
:104E800010B5164C05202061606115A0A06117497E
:104E9000E1614FF4006121620021A16261620121A0
:104EA000E1620FA0C4F89000114994200151102133
:104EB000982001510021A02001519C200151012185
:104EC000A42001510BA1E01DFBF779FA0AA12046AD
:104ED000FBF775FA2020A07110BD0000BC04002073
:104EE0005465726D696E616C00000000C40500209D
:104EF000C40D00205254540053454747455200000A
:104F000010B501460A69CB689A4204D88C68641EC1
:104F1000E41AA01801E0D41A601E10BD2DE9FC5F50
:104F200006460F4692469846DDE90C45002F01DA09
:104F3000784200E0384683464FF0010903E09BFBCE
:104F4000FAFB09F10109D345F9DAC84500D9C14690
:104F500034B1002F03DB05F00400042800D1641EE7
:104F600005F0020010B1B8F1000F11D005F00100FA
:104F700070B96CB108E0641E2021304600F0BAF828
:104F8000F068002800DA02E00CB1A145F3D300BFBD
:104F9000F068002836DB002F05DA7F422D213046ED
:104FA00000F0A8F807E005F00400042803D12B2145
:104FB000304600F09FF8F068002823DB05F002007F
:104FC000022814D105F0010088B9B8F1000F0ED104
:104FD0006CB108E0641E3021304600F08BF8F068B8
:104FE000002800DA02E00CB1A145F3D300BFF0685D
:104FF000002807DB4346524639463046CDE9004596
:1050000000F002F8BDE8FC9F2DE9FC5F8046894670
:1050100015461E460C9CCDF804900127BB4605E0C2
:105020000198B0FBF5F001900BF1010B0198A8423B
:10503000F6D25E4500D9B3460D9800F00100D0B914
:10504000CCB10D9800F00200022803D116B930202F
:10505000009001E02020009009E0641E4046009985
:1050600000F048F8D8F80C00002800DA02E00CB193
:10507000A345F2D300BFD8F80C00002835DB09E0C7
:10508000012E01D9761E04E0B9FBF7FAAA4500D239
:1050900001E06F43F4E700BF00BFB9FBF7FA0AFB7A
:1050A0001799134810F80A10404600F023F8D8F872
:1050B0000C00002800DA03E0B7FBF5F7002FECD175
:1050C00000BF0D9800F0010078B174B109E0641ED2
:1050D0002021404600F00EF8D8F80C00002800DA35
:1050E00002E00CB1A345F2D300BFBDE8FC9F000075
:1050F000D46F000870B504460E46A568681C616848
:10510000814206D320684655681CA060E068401CB8
:10511000E060D4E9011088420DD1A26821682069BD
:10512000FEF7CCFFA168884203D04FF0FF30E0606B
:1051300001E00020A06070BD2DE9F04704468946DB
:1051400017464FF0000AE56800BFD4F81080A84564
:1051500003D9A8EB0500461E04E0A5EB0800401C9F
:10516000A1680E1AA068401BB04201D9304601E088
:10517000A068401B0646BE4201D2304600E03846D9
:1051800006466168481932464946FBF73CF9B24485
:10519000B144BF1B3544A068A84200D10025E5609A
:1051A000002FD2D15046BDE8F0872DE9F0470446E4
:1051B00089461546E668A068871BAF4208D9616832
:1051C00088192A464946FBF71EF97019E06010E07D
:1051D000B8466168881942464946FBF714F9A5EBC1
:1051E000070809EB070142466068FBF70CF9C4F8B1
:1051F0000C80BDE8F0874100080218BF04200A0EA9
:1052000018BF40F001004FF07F4232EA010108BFB1
:1052100040F00200012808BF0520704702480068DE
:10522000C0F30220704700000CED00E010B500282C
:1052300004DB0A07130E054A135406E00A07140E8E
:10524000034A00F00F031B1FD45410BD00E400E01C
:1052500018ED00E010B54FF00E402DED028BB0EED2
:10526000408A18EE104A00EB4400B0F1506F4AD863
:105270004FF0FC40B0EB440F22D2B0EEC80AF7EE7C
:10528000000A30EEC00AF6EE000A60EE208A18EE40
:10529000900A01F06BFE01EE100A14F0004F1DBFE2
:1052A000DFED2D0A9FED2D0AB1EE411ADFED2C0A3C
:1052B00008BF9FED2C0AF8EE001A21EE218A05E0C6
:1052C000DFED290A68EE088AB0EE600A9FED271A22
:1052D000DFED271A30EE080A48EE811A9FED251AF5
:1052E00008EEA11ADFED241A48EE811A9FED231A69
:1052F00008EEA11A68EE281ABDEC028B01EE810AB5
:1053000030EE200A10BD4FF0E440B0EB440F0CD952
:1053100018EE100AFFF76FFF042808BF00F066F9C7
:10532000B0EE480ABDEC028B10BD4FF07F40B0EBF1
:10533000440F07D2B0EE480ABDEC028BBDE8104026
:1053400000F046B90120FBF73DF9BDEC028BBDE84A
:10535000104000F043B900000000C9BF22AAFDB907
:105360000000C93F22AAFD390000000024FE1C3DB8
:10537000C78AD83C1E67383D1B93993DAFAA2A3E89
:1053800010EE100A10B510EE901A4FF0684202EBC2
:1053900040032DED028BB3F1654F3CBF02EB4102A0
:1053A000B2F1654F7CD200BFC0F3C753C1F3C752FF
:1053B0009A1A1B2A09DD10F0004F14BF9FED6E0AE8
:1053C0009FED6E0ABDEC028B10BD12F11A0F1BDAB5
:1053D00011F0004F09D010F0004F0CBF9FED680A8C
:1053E0009FED680ABDEC028B10BD80EE208A18EE9E
:1053F000100AFFF700FF042808BF00F0F7F8B0EE2E
:10540000480ABDEC028B10BD4200B2EB410F37D908
:1054100010F0004F19BFDFED5C1A9FED5C1ADFED55
:105420005C1A9FED5C1AB0EE602A0A46F1EE400A63
:1054300080F00041B0EE420A10460A1A5200B2F162
:10544000807F34D2484010F0004FDFED532A9FEDAB
:10545000533A1DBFBEEE002A71EEE21A31EE431A36
:10546000B6EE002A04BF71EEA21A31EE031AF0EE76
:10547000402A42EE602A40EE020A82EEA02A18E09C
:1054800011F0004F04BF9FED461AF0EE411AD4D040
:1054900010F0004F1CBFDFED431A9FED431A00E0F0
:1054A00026E004BFDFED411A9FED411AC5E780EE0B
:1054B000202A22EE020ADFED3F0ADFED3F2ABDEC93
:1054C000028B40EE202ADFED3D0A40EE220ADFED9E
:1054D0003C2A40EE202ADFED3B0A40EE220A22EE73
:1054E000000A00EE201A31EE020A30EE210A10BD49
:1054F0004FF07F42B2EB400F28BFB2EB410F05D215
:10550000BDEC028BBDE8104000F065B840EA010335
:105510005B0008BF41F0FF410BD0B2EB400F08BF6A
:10552000B2EB410F08D120F0804000EE100A21F0CC
:10553000804100EE901A37E7B2EB400F12BF5FEAEE
:10554000410240F0FF4001F000413FF42DAF4A001E
:1055500092EA40033FF528AF002AACBF9FED1A1A2C
:105560009FED1A1A20EE010A60EE810A10EE100A71
:1055700010EE901A18E70000DB0FC9BFDB0FC93F20
:10558000DB0F4940DB0F49C00000C9BF22AAFDB9AB
:105590000000C93F22AAFD390060ED3EC30ACE37A4
:1055A00000000000000049C022AA7DBA0000494066
:1055B00022AA7D3A2DAD65BD8FB8D53D0FB511BE80
:1055C00061C84C3EA8AAAABE0000804F0000802FF0
:1055D00030EE000A704730EE200A7047DFED020A15
:1055E00080EEA00A70470000000000009FED020A54
:1055F00020EE000A70470000000000102DE9F04185
:105600000446E07800F0C006E07800F03F056078DE
:1056100000F0010098B1EF102846E91705EB517131
:10562000C910A5EBC101491C01F0FF080B48006837
:1056300020B10A48414602683846904700BF60786A
:1056400000F0080030B10548406818B1B011034AB5
:10565000516888470020BDE8F0810000D40D00208B
:1056600038B5044664B120208DF8000028208DF85C
:10567000010030208DF8020038208DF8030004E08E
:10568000A32204216846FAF703FF6A46042140F684
:105690009E2001F0E3FB01F053F838BD3EB504460F
:1056A00005208DF8000095208DF80100C6208DF8AA
:1056B000020012208DF803006A460421682001F0E0
:1056C000CDFBA3208DF8000004F0400048B1C020BD
:1056D0008DF80100C8208DF80200C2208DF803006B
:1056E00006E0A3208DF801008DF802008DF803007C
:1056F00004F4C07048B1C4208DF80400CC208DF8AB
:105700000500C6208DF8060006E0A3208DF80400F1
:105710008DF805008DF80600A3208DF807008DF8A0
:1057200008008DF809006A460A2140F6A72001F01A
:1057300095FB04F0030018B120208DF8000002E072
:10574000D8208DF800006A46012140F6B62001F00D
:1057500085FB04F0200018B1012000F0ADF802E054
:10576000002000F0A9F804F4C07008B304F48070BD
:1057700060B1B2208DF800008B208DF80100B620BA
:105780008DF802009B208DF803000BE0B0208DF80F
:10579000000080208DF80100B4208DF802009020D8
:1057A0008DF803006A46042140F6A22001F056FB62
:1057B00004F0010020B3F8208DF800006A460121B2
:1057C0004FF40B6001F04AFBFA21072000F092FA37
:1057D000072000F059FA012000F079FA642000F067
:1057E00069FB4FF4FA7000F078FBC821304800F0F4
:1057F00009FA282000F022FA0A2000F032FA08E024
:10580000D8208DF800006A4601214FF40B6001F0AA
:1058100025FB04F0020018B1D9208DF8000002E049
:10582000D8208DF800006A46012140F23D7001F059
:1058300015FB04F0040018B1012000F069F802E043
:10584000002000F065F804F0100018B10120FFF707
:1058500007FF02E00020FFF703FF44F008001549AE
:10586000488100F06DFF00201249887304F0400069
:1058700018B10846807B801D887304F4C07020B185
:105880000C48807B801D0B49887304F0140020B104
:105890000848807B10300749887304F0030020B16A
:1058A0000448807B001D0349887300203EBD000032
:1058B00012C69505D40D00203EB504466CB10EA16C
:1058C000D1E900208968CDE9002002916A460921CA
:1058D0004FF4976001F0C2FA3EBD0AA2D2E900106F
:1058E0009268CDE9010200916A4609214FF4976060
:1058F00001F0B4FAF0E70000B8AAB38DB4980D3502
:105900005D000000B8AAAAAAB088C3C5C7000000FD
:1059100038B5044664B1C0208DF80000C2208DF86F
:105920000100C4208DF80200C6208DF8030004E0B9
:105930008B2204216846FAF7ABFD6A46042140F643
:10594000982001F08BFA00F0FBFE38BD10B56423FF
:105950004FF48062024940F6F63000F08BFD10BD36
:10596000387000082DE9F04F8DB00746884615467F
:105970009946DDE9166B0024002030806D49887B54
:105980005A4605A900F03CFE18B1601E0DB0BDE8F6
:10599000F08F6848807A00F01400002867D09DF8E6
:1059A000140000069DF8151040EA01409DF81610FD
:1059B00040EA01209DF81710084328609DF8180060
:1059C00000069DF8191040EA01409DF81A1040EABF
:1059D00001209DF81B10084368609DF81C0000061C
:1059E0009DF81D1040EA01409DF81E1040EA01207C
:1059F0009DF81F100843A8609DF8200000069DF840
:105A0000211040EA01409DF8221040EA01209DF853
:105A100023100843E86004F11000C4B228680014A1
:105A20000190686800140290A86800140390E86868
:105A30000014049001984043029901FB010003996E
:105A400001FB0100049901FB010ABAF1706F02DB4E
:105A5000BAF1885F05DD00F073FE00203080401E43
:105A600094E7B6F9000040F48070308000BF314800
:105A7000807A00F0400020B305A9601C085C095D35
:105A800040EA012000B2A8F8000005A9E01C095C6A
:105A900005AAA01C105C41EA002000B2A8F8020090
:105AA00005A9601D095C201D105C41EA002000B2C0
:105AB000A8F80400A01DC4B2B6F9000040F0080028
:105AC00030801C48408900F4C07008B305A9601CF0
:105AD000085C095D40EA012000B2388005A9E01C9D
