:020000040800F2
:100000001016002039020008255400084344000857
:10001000F5520008AF060008E96200080000000081
:100020000000000000000000000000006D57000804
:10003000FF0700080000000029540008F9580008D4
:10004000530200085302000853020008530200083C
:10005000530200085302000853020008530200082C
:10006000530200085302000853020008530200081C
:10007000530200085302000853020008530200080C
:100080005302000853020008530200080000000059
:100090000000000000000000000000005302000803
:1000A00053020008DD590008CD590008530200082A
:1000B0005302000853020008ED59000853020008DB
:1000C00053020008530200085302000853020008BC
:1000D00053020008C9620008530200080000000033
:1000E0000108000853020008530200080000000045
:1000F00000000000000000000000000053020008A3
:100100000000000053020008FD59000853020008D7
:1001100000000000000000000000000000000000DF
:1001200053020008B5060008C5060008530200087F
:100130005302000800000000000000000000000062
:100140000000000000000000000000005302000852
:1001500053020008D5060008E5060008D962000829
:1001600053020008530200080000000000000000D5
:10017000000000000000000000000000000000007F
:100180000000000053020008000000000000000012
:10019000530200085302000800F002F800F03CF897
:1001A0000AA090E8000C82448344AAF10107DA45D2
:1001B00001D100F031F8AFF2090EBAE80F0013F0E8
:1001C000010F18BFFB1A43F001031847B09300005A
:1001D000D0930000103A24BF78C878C1FAD85207EB
:1001E00024BF30C830C144BF04680C6070470000B1
:1001F0000023002400250026103A28BF78C1FBD830
:10020000520728BF30C148BF0B6070471FB508F0C8
:1002100006F91FBD10B510BD00F014FA1146FFF726
:10022000F5FF07F0A5F800F032FA03B4FFF7F2FF8C
:1002300003BC00F035FA0000094880470948004730
:10024000FEE7FEE7FEE7FEE7FEE7FEE7FEE7FEE786
:10025000FEE7FEE704480549054A064B70470000E3
:10026000B95900089901000810100020101600204C
:10027000101200201012002053EA020C00F06980D6
:100280002DE9F04B4FF00006002B1FBFB3FA83F5AA
:1002900003FA05F424FA05F65E4012BF1643B2FADB
:1002A00082F502FA05F4C5F120051EBF22FA05FC0D
:1002B00044EA0C04203556EA044C4FEA144418BFB3
:1002C000641C4FF000084FF00009904271EB030CE2
:1002D00039D3002919BFB1FA81F701FA07F6B0FA4C
:1002E00080F700FA07F6C7F120071EBF20FA07FCC7
:1002F00046EA0C062037B6FBF4FCA7EB0507103FD7
:1003000007F01F0BCBF120060CFA0BFB2CFA06F6BC
:1003100044BFB3460026202FA4BF5E464FF0000B1B
:100320005BEA060C08BF4FF0010B19EB0B09ABFBA6
:10033000027C48EB0608C01B06FB02CC0BFB03CC7F
:1003400071EB0C01C1E70B46024641464846BDE849
:10035000F08B13B54FF000004FF00001AFF30080B9
:10036000BDE81C40704740EA010310B59B070FD160
:10037000042A0DD310C808C9121F9C42F8D020BA15
:1003800019BA884201D9012010BD4FF0FF3010BDCD
:100390001AB1D30703D0521C07E0002010BD10F89B
:1003A000013B11F8014B1B1B07D110F8013B11F861
:1003B000014B1B1B01D1921EF1D1184610BD40EA22
:1003C0000103024630B59B0710D14FF0013400E025
:1003D00008C208C91D1B9D4315EAC41FF8D013F0BD
:1003E000FF0102F8011B0DD01B0AF8E711F8013BD1
:1003F000002B02F8013B05D011F8013B002B02F85D
:10040000013BF3D130BD032A40F2308010F0030CE1
:1004100000F0158011F8013BBCF1020F624498BF57
:1004200011F801CB00F8013B38BF11F8013BA2F1F4
:10043000040298BF00F801CB38BF00F8013B11F06F
:10044000030300F0C580083AC0F0088051F8043B6F
:10045000083A51F804CBA0E80810F5E7121D5CBF7C
:1004600051F8043B40F8043BAFF30080D20724BFAF
:1004700011F8013B11F801CB48BF11F8012B24BF43
:1004800000F8013B00F801CB48BF00F8012B704792
:1004900002F0FF0343EA032242EA024200F002B8FC
:1004A0004FF000020429C0F0128010F0030C00F09D
:1004B0001B80CCF1040CBCF1020F18BF00F8012B1B
:1004C000A8BF20F8022BA1EB0C0100F00DB85FEAE9
:1004D000C17C24BF00F8012B00F8012B48BF00F8B5
:1004E000012B70474FF0000200B513469446964624
:1004F000203922BFA0E80C50A0E80C50B1F1200137
:10050000BFF4F7AF090728BFA0E80C5048BF0CC0E4
:100510005DF804EB890028BF40F8042B08BF704742
:1005200048BF20F8022B11F0804F18BF00F8012BB4
:10053000704700004FF0013C50F8042B51F8043B89
:100540009A4221D1A2EB0C03934313EACC1317D1A7
:1005500050F8042B51F8043B9A4215D1A2EB0C033E
:10056000934313EACC130BD150F8042B51F8043BFE
:100570009A4209D1A2EB0C03934313EACC13DBD0CC
:100580004FF00000704700BFD01A01BAB1FA81F1F4
:1005900001F0180122FA01F0CB40C1F12001DBB2D9
:1005A000C0B2C01A2CFA01F3D11A914311EAC31157
:1005B000E6D1704770477047704710B500F03AF8C1
:1005C000006810BD10B5044600F034F8046010BD9A
:1005D00010B5203AC0F00B80B1E81850203AA0E8DE
:1005E0001850B1E81850A0E81850BFF4F5AF5FEA12
:1005F000027C24BFB1E81850A0E8185044BF18C9C5
:1006000018C0BDE810405FEA827C24BF51F8043B6B
:1006100040F8043B08BF7047D20728BF31F8023BBF
:1006200048BF11F8012B28BF20F8023B48BF00F853
:10063000012B704700487047AC0F002000487047FE
:10064000AC0F00207546FFF7F9FFAE46050069467E
:10065000534620F00700854618B020B5FFF7FAFD95
:10066000BDE820404FF000064FF000074FF00008B3
:100670004FF0000B21F00701AC46ACE8C009ACE834
:10068000C009ACE8C009ACE8C0098D46704710B598
:100690000446AFF300802046BDE81040FFF7C5BD1B
:1006A00001491820ABBEFEE726000200704700BFDC
:1006B000FEE7000010B5024800F084F910BD00000C
:1006C000FC03002010B5024800F07CF910BD0000CA
:1006D0009C03002010B5024800F074F910BD000022
:1006E0005C04002010B5024800F06CF910BD000059
:1006F0003C0300200146087810381823B0FBF3F2C1
:100700000848805CC865032A05D908686FF30900AA
:10071000001D886503E008686FF309008865886D2F
:100720007047000028840008014600208A6A8B690F
:10073000CBB932B1012A0DD0022A03D0032A10D13D
:100740000EE000BFCB6A03F08073B3F1807F00D16D
:10075000012007E0CB6AB3F1C07F00D1012001E0A6
:1007600000E000BF34E08B69B3F5005F1AD132B10D
:10077000012A07D0022A03D0032A11D10AE000BFC0
:1007800001200EE0CB6A03F08073B3F1807F00D1CB
:10079000012006E0CB6AB3F1C07F00D1012000E068
:1007A00000BF15E032B1012A05D0022A04D0032A85
:1007B0000CD103E000BF00BF012008E0CB6A03F0CA
:1007C0008073B3F1807F00D1012000E000BF00BF43
:1007D000704730B50468246824F4802405682C60D0
:1007E000046863608468402C04D10468A2600468D3
:1007F000E16003E00468A1600468E26030BD704716
:1008000010B54FF4004000F01DFD10BD72B600BFE2
:10081000FEE710B5014691F8BE00132290FBF2F3FB
:1008200002FB130091F8BF20132392FBF3F403FBA8
:100830001422904201D1012010BD0020FCE710B528
:10084000014691F8BE00401C132290FBF2F302FB1C
:10085000130091F8BF20132392FBF3F403FB14223F
:10086000904201D1012010BD0020FCE770B5044684
:100870000D462046FFF7CDFF08B1002070BD94F86B
:10088000BF0000EB800004EB400001682960416874
:1008900069600089288194F8BF00401C132190FBF7
:1008A000F1F201FB120084F8BF000120E6E770B509
:1008B00004460D462046FFF7C2FF08B1002070BD78
:1008C00094F8BE0000EB800004EB40002968016052
:1008D000696841602989018194F8BE00401C132198
:1008E00090FBF1F201FB120084F8BE000120E6E764
:1008F00070B50446A56D00F033FF064694F8350048
:10090000022808D08020606500BF002084F83400F1
:1009100000BF012070BD2068006820F0160021682B
:1009200008602068406920F0800021684861206CE0
:1009300008B9A06C28B12068006820F00800216880
:1009400008602068006820F001002168086010E05D
:1009500000F006FF801B05280BD9202060650320CE
:1009600084F8350000BF002084F8340000BF032065
:10097000D0E72068006800F001000028E8D194F872
:100980005C103F208840A860012084F8350000BF3B
:10099000002084F8340000BF00BFBBE7014691F897
:1009A0003500022803D080204865012070470520CB
:1009B00081F835000868006820F001000A681060BE
:1009C0000020F3E7F8B50446002000908C4800684A
:1009D0004FF41651B0FBF1F7A56D2E6894F85C103A
:1009E00008208840304098B12068006800F004007A
:1009F00070B12068006820F004002168086094F855
:100A00005C1008208840A860606D40F001006065BF
:100A100094F85C1001208840304068B1206840693B
:100A200000F0800040B194F85C1001208840A8607C
:100A3000606D40F00200606594F85C10042088400E
:100A4000304068B12068006800F0020040B194F8BE
:100A50005C1004208840A860606D40F00400606570
:100A600094F85C1010208840304078B3206800680B
:100A700000F0080050B394F85C1010208840A86083
:100A80002068006800F4802080B12068006800F4CD
:100A9000002028B9206CC8B12046216C884715E099
:100AA000A06C98B12046A16C88470FE020680068D0
:100AB00000F4807028B92068006820F008002168E0
:100AC0000860206C10B12046216C884794F85C10B7
:100AD000202088403040002865D02068006800F061
:100AE000100000285FD094F85C1020208840A86097
:100AF00094F83500052828D12068006820F01600F9
:100B0000216808602068406920F080002168486101
:100B1000206C08B9A06C28B12068006820F008009B
:100B20002168086094F85C103F208840A86001208C
:100B300084F8350000BF002084F8340000BF206D29
:100B400010B12046216D8847F8BD2068006800F488
:100B5000802080B12068006800F4002028B9606C13
:100B600010B12046616C88471DE0E06BD8B120468B
:100B7000E16B884717E02068006800F4807068B96E
:100B80002068006820F0100021680860012084F8C7
:100B9000350000BF002084F8340000BFE06B10B1C6
:100BA0002046E16B8847606D38B3606D00F001004E
:100BB000F0B1052084F835002068006820F00100BD
:100BC0002168086000BF0098401C0090B84200D91E
:100BD00005E02068006800F001000028F3D100BFA4
:100BE000012084F8350000BF002084F8340000BFE5
:100BF000E06C10B12046E16C884700BFA4E700001C
:100C0000240000202DE9F0410446002500F0A8FD55
:100C1000074614B90120BDE8F081C0492068884228
:100C200049D0BE4918312068884244D0BB49303190
:100C3000206888423FD0B9494831206888423AD07C
:100C4000B64960312068884235D0B449783120688F
:100C5000884230D0B1499031206888422BD0AF49CA
:100C6000A8312068884226D0AD492068884222D029
:100C7000AB491831206888421DD0A949303120681D
:100C8000884218D0A64948312068884213D0A44928
:100C90006031206888420ED0A149783120688842AE
:100CA00009D09F4990312068884204D09C49A831DE
:100CB0002068884200D103E0B7219AA005F0D4FE55
:100CC0006068D8B16068B0F1007F17D06068B0F19B
:100CD000806F13D06068B0F1C06F0FD06068B0F162
:100CE000006F0BD06068B0F1206F07D06068B0F182
:100CF000406F03D06068B0F1606F00D103E0B821AD
:100D000088A005F0B1FEA06828B1A068402802D0F4
:100D1000A068802800D103E0B92182A005F0A4FEDC
:100D2000E068B0F5007F01D0E06800B903E0BA21C7
:100D30007CA005F099FE2069B0F5806F01D0206994
:100D400000B903E0BB2177A005F08EFE606938B1E1
:100D50006069B0F5006F03D06069B0F5805F00D1C5
:100D600003E0BC216FA005F07FFEA06938B1A06947
:100D7000B0F5005F03D0A069B0F5804F00D103E06B
:100D8000BD2168A005F070FEE06930B1E069B0F502
:100D9000807F02D0E069202800D103E0BE2161A05D
:100DA00005F062FE206A58B1206AB0F5803F07D096
:100DB000206AB0F5003F03D0206AB0F5403F00D173
:100DC00003E0BF2157A005F04FFE606A10B1606AD2
:100DD000042800D103E0C02152A005F045FE606A5E
:100DE000002835D0A06A40B1A06A012805D0A06AC9
:100DF000022802D0A06A032800D103E0C52149A03F
:100E000005F032FEE06A58B1E06AB0F5000F07D095
:100E1000E06AB0F1807F03D0E06AB0F1C07F00D11A
:100E200003E0C6213FA005F01FFE206B58B1206BE8
:100E3000B0F5001F07D0206BB0F5800F03D0206BFA
:100E4000B0F5C00F00D103E0C72136A005F00CFEBD
:100E5000022084F8350000BF002084F8340000BF71
:100E60002068006820F00100216808600AE000F0B6
:100E700077FCC01B052805D920206065032084F875
:100E80003500C8E62068006800F001000028EED1B7
:100E90002068056831480540D4E901010843E1684C
:100EA00008432169084361690843A1690843E1696E
:100EB0000843216A08430543606A042803D1D4E942
:100EC0000B0108430543206805602068456925F04B
:100ED0000705606A0543606A04280DD1A06A0543CE
:100EE000E06A48B12046FFF71FFC28B1402060654A
:100EF000012084F835008EE6206845612046FFF722
:100F0000F9FB064694F85C103F208840B060002052
:100F10006065012084F8350000207CE61060024006
:100F2000106402402E2E2F447269766572732F531F
:100F3000544D3332463478785F48414C5F4472698F
:100F40007665722F5372632F73746D333266347803
:100F5000785F68616C5F646D612E63003F8010F0A4
:100F60002DE9F04704460E4617461D464FF000088F
:100F7000D4F858901DB1B5F5803F00D204E040F29E
:100F8000CB1121A005F070FD00BF94F834000128BA
:100F900002D10220BDE8F087012084F8340000BFB0
:100FA00094F83500012825D1022084F8350000206E
:100FB00060652B463A4631462046FFF70AFC94F816
:100FC0005C103F208840C9F808002068006840F0A5
:100FD000160021680860206C28B12068006840F085
:100FE0000800216808602068006840F0010021685E
:100FF000086006E000BF002084F8340000BF4FF016
:1010000002084046C6E700002E2E2F44726976651E
:1010100072732F53544D3332463478785F48414CC5
:101020005F4472697665722F5372632F73746D33E8
:1010300032663478785F68616C5F646D612E63003E
:1010400070B5044600F08CFB06462546681C10B1BE
:1010500004480078054400BF00F082FB801BA842D2
:10106000FAD370BD200000202DE9F04704468846E1
:101070004FF00009002600274B4884420ED04B4811
:1010800084420BD04A48844208D04A48844205D062
:101090004948844202D04948844200D104E04FF4D8
:1010A000977147A005F0E0FC002579E0012000FAE7
:1010B00005F908EA09064E4571D15048A90850F8CB
:1010C0002170A807010F0F2088400740364884424E
:1010D00001D1002014E03548844201D101200FE005
:1010E0003348844201D102200AE03248844201D1CF
:1010F000032005E03048844201D1042000E00720AD
:10110000A907090F8840B84223D13D480068B04381
:101110003B490860081D0068B043091D0860384855
:101120000C300068B04336490C310860081F006875
:10113000B043091F0860A807010F0F2000FA01F74C
:101140002E48A90850F82100B8432C49AA0841F8B4
:10115000220020686A000321914088432060E9084A
:1011600004F1200050F821006907CA0E0F219140B8
:101170008843EA0804F1200141F82200E0686A008F
:10118000032191408843E06061680120A8408143C9
:101190006160A0686A00032191408843A0606D1CD3
:1011A000102D83D3BDE8F087000002400004024008
:1011B00000080240000C024000100240001C0240E7
:1011C0002E2E2F447269766572732F53544D33322D
:1011D000463478785F48414C5F4472697665722F77
:1011E0005372632F73746D3332663478785F68613D
:1011F0006C5F6770696F2E63000000000838014063
:10120000003C014010B50446B4F5004F09D101205F
:10121000044908700448007818B904A1002004F0BB
:101220008FF910BD02000020010000204D505536FE
:101230003035300A446174610A5265616479210A6B
:101240000000000010B5044604480068204020B1AA
:10125000024804602046FFF7D5FF10BD143C014052
:101260002DE9F84306460C464FF00009C846002514
:10127000D04886420ED0D04886420BD0CF48864216
:1012800008D0CF48864205D0CE48864202D0CE480C
:10129000864200D103E0AC21CCA005F0E5FB20881C
:1012A00080B220B120686FF30F0000B903E0AD21D8
:1012B000C6A005F0D9FB606830B36068012823D070
:1012C0006068112820D0606802281DD0606812284C
:1012D0001AD06068B0F5881F16D06068B0F5041F9A
:1012E00012D06068B0F5441F0ED06068B0F5901F52
:1012F0000AD06068B0F5081F06D06068B0F5481FD6
:1013000002D06068032800D103E0AE21AFA005F051
:10131000ABFB002748E1012000FA07F9206800EA4A
:101320000908C8457ED1207900F00300012804D0C7
:10133000207900F00300022823D1E06840B1E06882
:10134000012805D0E068022802D0E068032800D117
:1013500003E0C0219DA005F087FBB568790003205C
:10136000884085437900E06888400543B56075682A
:101370000120B84085432079C0F30010B8400543F0
:101380007560207900F00300032816D0A06828B10A
:10139000A068012802D0A068022800D103E0D12172
:1013A0008AA005F061FBF568790003208840854339
:1013B0007900A06888400543F560207900F00300BB
:1013C000022870D1206970B32069092852D02069A1
:1013D00048B3206938B3206928B3206918B320695D
:1013E000012847D02069012844D02069022841D033
:1013F000206902283ED0206902283BD020690428B9
:1014000038D02069042835D02069042832D02069DA
:1014100005282FD0206905282CD02069052829D03F
:10142000206901E0BFE025E0062823D020690628D6
:1014300020D0206905281DD0206906281AD02069EF
:10144000072817D02069072814D02069072811D051
:10145000206908280ED020690A280BD020690928A5
:1014600008D02069092805D020690C2802D02069FD
:101470000F2800D103E0DE2154A005F0F5FAF908A9
:1014800006F1200050F821507807C10E0F20884047
:1014900085437907C90E206988400543F90806F19C
:1014A000200040F8215035687900032088408543AA
:1014B000207900F0030079008840054335606068BA
:1014C00000F4403000286ED000BF002000904E484D
:1014D000006840F480404C4908600846006800F409
:1014E0008040009000BF00BF4848B90850F8215024
:1014F000B807010F0F20884085432E48864201D14E
:10150000002014E02C48864201D101200FE02B4836
:10151000864201D102200AE02948864201D10320F7
:1015200005E02848864201D1042000E00720B907E1
:10153000090F884005433548B90840F82150344820
:10154000056825EA0805606800F4801008B145EADE
:1015500008052F480560001D056825EA0805606834
:1015600000F4001008B145EA08052948001D05608F
:101570002748001F056825EA0805606800F4003068
:1015800008B145EA08052248001F0560001F0568EC
:1015900025EA0805606800F4803008B145EA0805CE
:1015A0001B48083805607F1C102FFFF4B4AEBDE85F
:1015B000F8830000000002400004024000080240DE
:1015C000000C024000100240001C02402E2E2F444E
:1015D0007269766572732F53544D3332463478787E
:1015E0005F48414C5F4472697665722F5372632F76
:1015F00073746D3332663478785F68616C5F6770DE
:10160000696F2E6300000000443802400838014032
:10161000083C014070B506460C46A0B218B1200C3B
:10162000000400B904E04FF4BE7105A005F01CFAF7
:101630003069204008B1012500E00025284670BD32
:101640002E2E2F447269766572732F53544D3332A8
:10165000463478785F48414C5F4472697665722FF2
:101660005372632F73746D3332663478785F6861B8
:101670006C5F6770696F2E630000000070B50546EF
:101680000C46A0B218B1200C000400B904E04FF4DD
:10169000DB7106A005F0E8F96E6924EA060006EAA7
:1016A000040140EA0140A86170BD00002E2E2F44C5
:1016B0007269766572732F53544D3332463478789D
:1016C0005F48414C5F4472697665722F5372632F95
:1016D00073746D3332663478785F68616C5F6770FD
:1016E000696F2E630000000070B506460C46154673
:1016F000A0B218B1200C000400B904E040F29D1122
:1017000008A005F0B1F90DB1012D00D104E04FF4AE
:10171000CF7104A005F0A8F90DB1B46101E0200477
:10172000B06170BD2E2E2F447269766572732F538F
:10173000544D3332463478785F48414C5F44726987
:101740007665722F5372632F73746D3332663478FB
:10175000785F68616C5F6770696F2E6300000000DE
:1017600001480068704700001800002010B50446CA
:101770000CB9012010BD15492068884207D01449D2
:101780002068884203D013492068884200D104E0D1
:1017900040F2392110A005F067F9242084F83D00BB
:1017A0002068006820F0010021680860204600F0F1
:1017B00005FD0020206484F83D00206384F83E008D
:1017C00000BF84F83C0000BF00BFD3E700540040D6
:1017D00000580040005C00402E2E2F447269766550
:1017E00072732F53544D3332463478785F48414CEE
:1017F0005F4472697665722F5372632F73746D3311
:1018000032663478785F68616C5F6932632E63009A
:1018100070B504460CB9012070BDA3492068884208
:1018200007D0A2492068884203D0A1492068884295
:1018300000D104E040F2C9119EA005F015F96068DE
:1018400020B1AA496068884200D804E04FF4E571ED
:1018500098A005F009F9A06818B1A068B0F5804F0C
:1018600000D104E040F2CB1192A005F0FDF8E06851
:101870006FF3090000B904E04FF4E6718DA005F0A4
:10188000F3F82069B0F5804F03D02069B0F5404FE0
:1018900000D104E040F2CD1186A005F0E5F86069C2
:1018A00010B16069012800D104E04FF4E77181A014
:1018B00005F0DAF8A06920F0FE0000B904E040F27B
:1018C000CF117CA005F0D0F8E06910B1E0694028A4
:1018D00000D104E04FF4E87176A005F0C5F8206A65
:1018E00010B1206A802800D104E040F2D11171A02B
:1018F00005F0BAF894F83D0028B9002084F83C00BF
:10190000204600F077FC242084F83D002068006821
:1019100020F00100216808602068006840F4004061
:10192000216808602068006820F400402168086091
:1019300000F0EAFF05466E496068884206D86D48A7
:10194000854201D2012007E0002005E06A48854277
:1019500001D2012000E00020012800D15CE76748A7
:10196000B5FBF0F62068406820F03F003043216866
:1019700048605F496068884201D8701C07E04FF4F6
:10198000967070434FF47A71B0FBF1F0401C2168FF
:10199000096A21F03F0108432168086254496068E0
:1019A000884214D8681E61684900B0FBF1F0401C01
:1019B000C0F30B00042801D204203DE0681E6168DA
:1019C0004900B0FBF1F0401CC0F30B0034E0A0680C
:1019D00038B9681E616801EB4101B0FBF1F0401CB1
:1019E0000AE0681E616801EBC10202EB0111B0FB65
:1019F000F1F0401C40F48040C0F30B0008B9012016
:101A00001AE0A06848B9681E616801EB4101B0FBAB
:101A1000F1F0401CC0F30B000CE0681E616801EBA4
:101A2000C10202EB0111B0FBF1F0401CC0F30B004E
:101A300040F4804040F400402168C9694CF6FF72D0
:101A4000914308432168C861D4E90701084321682C
:101A5000096821F0C001084321680860D4E9031037
:101A600008432168896848F2FF329143084321689E
:101A70008860D4E9050108432168C96821F0FF01A5
:101A800008432168C8602068006840F001002168B0
:101A9000086000202064202084F83D00002020639E
:101AA00084F83E0000BFB7E60054004000580040F4
:101AB000005C00402E2E2F447269766572732F539E
:101AC000544D3332463478785F48414C5F447269F4
:101AD0007665722F5372632F73746D333266347868
:101AE000785F68616C5F6932632E6300801A06005C
:101AF000A086010080841E0000093D0040420F00C6
:101B00002DE9F84F04460F4690461E46FFF728FE83
:101B100005464FF0000994F83D0020287ED1192396
:101B2000012263492046009502F081FE10B1022097
:101B3000BDE8F88F00BF94F83C00012801D10220D5
:101B4000F6E7012084F83C0000BF2068006800F040
:101B5000010028B92068006840F001002168086091
:101B60002068006820F4006021680860242084F860
:101B70003D00002020644F48E06200BF20680068FC
:101B800040F4807021680860334600224FF0011154
:101B90002046009502F04BFE58B12068006800F422
:101BA0008070B0F5807F02D14FF400702064032074
:101BB000BEE707F0FE0021680861FFF7D1FD05468A
:101BC00020684069C0F3400A20684069C0F3802B58
:101BD00010E0FFF7C5FD401BB04200D816B9A020A9
:101BE00084F83D0020684069C0F3400A20684069DD
:101BF000C0F3802B94F83D00A02805D0BAF1000F67
:101C000002D1BBF1000FE4D0202084F83D00206811
:101C10004069C0F3400028B3206800E045E0006858
:101C200040F400702168086000BF00200090206828
:101C30004069009020688069009000BF00BF1923B0
:101C400001221B492046009502F0F1FD08B1012058
:101C50006EE7202084F83D0000BF002084F83C009F
:101C600000BF65E72068006840F4007021680860E4
:101C70006FF4806021684861192301220C492046D5
:101C8000009502F0D4FD08B1012051E709F10109E6
:101C9000C145FFF473AF202084F83D0000BF002051
:101CA00084F83C0000BF012042E7022040E700002A
:101CB000020010000000FFFF2DE9FC5F044688468B
:101CC00091461E46DDE90CAB0E9FFFF749FD054628
:101CD000012E01D0102E00D104E040F64821BAA018
:101CE00004F0C2FE94F83D00202870D1192301228F
:101CF000C3492046009502F09AFD10B10220BDE8CC
:101D0000FC9F00BF94F83C00012801D10220F6E7B7
:101D1000012084F83C0000BF2068006800F001004A
:101D200028B92068006840F0010021680860206838
:101D3000006820F4006021680860222084F83D00DB
:101D4000402084F83E0000202064C4F824A0A4F8B9
:101D50002AB0608D2085AB48E06233464A46414652
:101D60002046CDE9007502F00FFC08B10120C6E75E
:101D7000208D88B900BF0020019020684069019043
:101D800020688069019000BF00BF2068006840F4AF
:101D900000702168086040E0208D012818D120687B
:101DA000006820F480602168086000BF0020019076
:101DB00020684069019020688069019000BF00BFE1
:101DC0002068006840F400702168086025E0F8E0B1
:101DD000208D022816D12068006820F480602168D8
:101DE00008602068006840F400602168086000BF57
:101DF000002001902068406901902068806901906E
:101E000000BF0AE000BF00200190206840690190F7
:101E100020688069019000BF00BFC3E0208D0328C7
:101E20007ED8208D012815D12A463946204602F059
:101E3000DAFD08B1012062E720680069616A087074
:101E4000606A401C6062208D401E2085608D401EAF
:101E50006085A7E0208D02282AD13B4600226A49EE
:101E60002046009502F0E3FC08B1012047E7206816
:101E7000006840F400702168086020680069616AA9
:101E80000870606A401C6062208D401E2085608D55
:101E9000401E608520680069616A0870606A401CA5
:101EA0006062208D401E2085608D401E608579E037
:101EB0003B46002254492046009502F0B8FC08B188
:101EC00001201CE72068006820F480602168086019
:101ED00020680069616A0870606A401C6062208D39
:101EE000401E2085608D401E60853B46002246498D
:101EF0002046009502F09BFC08B10120FFE6206817
:101F0000006840F400702168086020680069616A18
:101F10000870606A401C6062208D401E208500E0D1
:101F200010E0608D401E608520680069616A08705D
:101F3000606A401C6062208D401E2085608D401EBE
:101F400060852FE02A463946204602F04CFD08B154
:101F50000120D4E620680069616A0870606A401C4C
:101F60006062208D401E2085608D401E6085206847
:101F70004069C0F38000A8B1208D032805D12068F6
:101F8000006820F480602168086020680069616A48
:101F90000870606A401C6062208D401E2085608D44
:101FA000401E6085208D00287FF438AF202084F803
:101FB0003D00002084F83E0000BF84F83C0000BFD4
:101FC0009DE602209BE600002E2E2F447269766566
:101FD00072732F53544D3332463478785F48414CF6
:101FE0005F4472697665722F5372632F73746D3319
:101FF00032663478785F68616C5F6932632E6300A3
:10200000020010000000FFFF040001002DE9FC5F4A
:102010000446884691461D46DDE90CAB0E9FFFF74E
:102020009FFB0646012D01D0102D00D104E040F6A3
:10203000CD1152A004F018FD94F83D0020287DD168
:10204000192301225B492046009602F0F0FB10B1F3
:102050000220BDE8FC9F00BF94F83C00012801D19C
:102060000220F6E7012084F83C0000BF20680068E9
:1020700000F0010028B92068006840F001002168E4
:1020800008602068006820F4006021680860212052
:1020900084F83D00402084F83E0000202064C4F80D
:1020A00024A0A4F82AB0608D20854348E0622B4626
:1020B0004A4641462046CDE9007602F015FB08B1BC
:1020C0000120C6E731E032463946204602F0D0FC16
:1020D00050B1206C042805D12068006840F40070DD
:1020E000216808600120B4E7606A0078216808610F
:1020F000606A401C6062208D401E2085608D401EFD
:10210000608520684069C0F3800070B1208D60B1A7
:10211000606A007821680861606A401C6062208DF6
:10212000401E2085608D401E6085208D0028CAD10C
:1021300032463946204602F047FB00E01CE050B131
:10214000206C042805D12068006840F400702168E4
:10215000086001207DE72068006840F40070216875
:102160000860202084F83D00002084F83E0000BF75
:1021700084F83C0000BF6CE702206AE72E2E2F4453
:102180007269766572732F53544D333246347878C2
:102190005F48414C5F4472697665722F5372632FBA
:1021A00073746D3332663478785F68616C5F69325E
:1021B000632E6300020010000000FFFF10B504460C
:1021C0000949206888420DD10848006820F40010B1
:1021D0000649086040210648FEF746FF8021044872
:1021E000FEF742FF10BD000000540040403802409E
:1021F0000004024010B586B00446142101A8FEF781
:1022000071F91B49206888422FD100BF002000903F
:102210001848006840F00200164908600846006847
:1022200000F00200009000BF00BFC020019012200B
:10223000029000200390032004900420059001A93F
:102240000D48FFF70DF800BF00200090094810303E
:10225000006840F400100749103108600846006823
:1022600000F40010009000BF00BF06B010BD0000D9
:1022700000540040303802400004024070B504466B
:102280000CB9012070BD2B492068884200D103E0C1
:10229000AF2129A004F0E8FB606888B160680128DC
:1022A0000ED0606802280BD06068032808D06068F0
:1022B000042805D06068052802D06068062800D18F
:1022C00003E0B0211CA004F0CFFBA068B0F5805F54
:1022D00000D203E0B12118A004F0C6FB4CF6CC40BC
:1022E0002168086045F2555021680860D4E9001063
:1022F00048602168A0688860FFF732FA05460DE063
:10230000FFF72EFA401B41F60101884206D92068EA
:10231000C06800F0030008B10320B3E72068C0687C
:1023200000F003000028EBD14AF6AA2021680860DB
:102330000020A7E7003000402E2E2F4472697665FA
:1023400072732F53544D3332463478785F48414C82
:102350005F4472697665722F5372632F73746D33A5
:1023600032663478785F68616C5F697764672E6382
:102370000000000001464AF6AA200A68106000200A
:102380007047000003480068034909780844014980
:1023900008607047180000202000002010B50D488C
:1023A000006840F400700B4908600846006840F47B
:1023B000806008600846006840F480700860032070
:1023C00000F0F8F80F2000F007F800F02BF80020DC
:1023D00010BD0000003C024070B504460E48007875
:1023E0004FF47A71B1FBF0F00C490968B1FBF0F5DC
:1023F000284600F00DFE08B1012070BD102C07D258
:1024000000222146501E00F06BF80548046001E0F0
:102410000120F2E70020F0E7200000202400002047
:102420001C00002008B500BF002000900E48006886
:1024300040F480400C4908600846006800F4804081
:10244000009000BF00BF00BF00200090081F006880
:1024500040F08050091F08600846006800F0805076
:10246000009000BF00BF08BD4438024010B50446CC
:10247000002C00DB03E0BC210AA004F0F5FA2046A2
:1024800000280DDB00BF00BF00F01F0201219140BA
:102490004209920002F1E022C2F8001100BF00BF21
:1024A00000BF10BD2E2E2F447269766572732F53B4
:1024B000544D3332463478785F48414C5F447269FA
:1024C0007665722F5372632F73746D33326634786E
:1024D000785F68616C5F636F727465782E6300006B
:1024E0002DE9F05F80460C4615460027102D00D2DE
:1024F00003E0A82120A004F0B7FA102C00D203E0DA
:10250000A9211DA004F0B0FA04F0BEF80746394630
:1025100022462B4601F00700C0F1070ABAF1040F6A
:1025200002D94FF0040A01E0C0F1070AD14600F1D8
:10253000040ABAF1070F02D24FF0000A01E0A0F13D
:10254000030AD4464FF0010A0AFA09FAAAF1010A6D
:102550000AEA020A0AFA0CFA4FF0010B0BFA0CFB1A
:10256000ABF1010B0BEA030B4AEA0B06314640467E
:1025700004F092F8BDE8F09F2E2E2F447269766524
:1025800072732F53544D3332463478785F48414C40
:102590005F4472697665722F5372632F73746D3363
:1025A00032663478785F68616C5F636F72746578E7
:1025B0002E63000010B50446072C07D0062C05D06A
:1025C000052C03D0042C01D0032C00D103E0902172
:1025D00009A004F049FA00BF04F00701154A106889
:1025E0004FF6FF021040144A024342EA0120114A0A
:1025F000106000BF10BD00002E2E2F44726976655A
:1026000072732F53544D3332463478785F48414CBF
:102610005F4472697665722F5372632F73746D33E2
:1026200032663478785F68616C5F636F7274657866
:102630002E6300000CED00E00000FA0570B50446C2
:102640000D460CB9012070BD2068012803D3206815
:102650000F2800D804E040F25A2195A004F004FAB3
:102660006DB1012D0BD0022D09D0032D07D0042D03
:1026700005D0052D03D0062D01D0072D00D104E093
:1026800040F25B218AA004F0EFF99748006800F05F
:102690000700A84209D294490D700846006800F06E
:1026A0000700A84201D00120CDE7207800F0020009
:1026B00002283DD1207800F00400042805D18B4881
:1026C000006840F4E05089490860207800F0080074
:1026D000082805D18548006840F4604083490860B7
:1026E000A068B8B1A068802814D0A068902811D044
:1026F000A068A0280ED0A068B0280BD0A068C02881
:1027000008D0A068D02805D0A068E02802D0A06832
:10271000F02800D104E040F27E2165A004F0A4F985
:102720007248006820F0F000A16808436F49086013
:10273000207800F0010000284ED0606840B1606849
:10274000012805D06068022802D06068032800D103
:1027500004E040F2852156A004F086F96068012863
:1027600007D1624808380068C0F34040B8B901207A
:1027700069E76068022802D06068032807D15B48D7
:1027800008380068C0F3406048B901205BE757484B
:1027900008380068C0F3400008B9012053E75348E7
:1027A000006820F003006168084350490860FEF7A4
:1027B000D7FF064608E0FEF7D3FF801B41F28831C1
:1027C000884201D903203EE74848006800F00C0029
:1027D0006168B0EB810FEED14348006800F007005C
:1027E000A84209D940490D700846006800F007006A
:1027F000A84201D0012026E7207800F00400042838
:102800001FD1E06878B1E068B0F5805F0BD0E06878
:10281000B0F5A05F07D0E068B0F5C05F03D0E06816
:10282000B0F5E05F00D104E040F2C32120A004F045
:102830001BF92E48006820F4E050E16808432B495A
:102840000860207800F00800082820D1206978B1BD
:102850002069B0F5805F0BD02069B0F5A05F07D08C
:102860002069B0F5C05F03D02069B0F5E05F00D10A
:1028700004E040F2CA210EA004F0F6F81B480068FC
:1028800020F46040216940EAC1001849086000F066
:102890005BF816490968C1F30311154A515CC84039
:1028A0001449086014480068FFF796FD0020CAE646
:1028B0002E2E2F447269766572732F53544D333226
:1028C000463478785F48414C5F4472697665722F70
:1028D0005372632F73746D3332663478785F686136
:1028E0006C5F7263632E6300003C02400838024054
:1028F00030840008240000201C00002001480068EB
:10290000704700002400002000B5FFF7F7FF0449DE
:102910000968C1F38221034A515CC84000BD000030
:10292000083802404084000800B5FFF7E7FF04497B
:102930000968C1F34231034A515CC84000BD000040
:1029400008380240408400082DE9F04700240025A3
:102950000026A1462548006800F00C0020B104289C
:1029600005D008283AD105E0DFF8849039E0DFF897
:10297000849036E01D48001F006800F03F041B48AB
:10298000001F006800F4800078B11A481749091F39
:102990000968C1F38811A0FB01700146224600239B
:1029A0003846FDF769FC05460EE011480F49091F3E
:1029B0000968C1F38811A0FB01700146224600237B
:1029C0003846FDF759FC05460848001F0068C0F36B
:1029D0000140401C4600B5FBF6F902E0DFF810901C
:1029E00000BF00BF4846BDE8F0870000083802403D
:1029F0000024F40040787D01F8B504460CB90120AC
:102A0000F8BD20680F2800D803E0E621FBA004F001
:102A10002BF8207800F00100002870D0606838B1F1
:102A20006068B0F5803F03D06068B0F5A02F00D19A
:102A300003E0EB21F1A004F017F8FE48006800F075
:102A40000C0004280DD0FB48006800F00C0008289A
:102A500013D1F848001F006800F48000B0F5800F23
:102A60000BD1F44808380068C0F34040002859D022
:102A70006068002856D10120C2E700BF6068B0F549
:102A8000803F08D1EB480838006840F48030E949BD
:102A9000083908601EE06068B0F5A02F0DD1E54848
:102AA0000838006840F48020E24908390860084688
:102AB000006840F4803008600CE0DE4808380068A8
:102AC00020F48030DB49083908600846006820F4AB
:102AD0008020086000BF606890B1FEF741FE0546A7
:102AE00006E0FEF73DFE401B642801D9032087E77E
:102AF000D04808380068C0F340400028F1D011E009
:102B0000FEF72EFE054606E0FEF72AFE401B64286F
:102B100001D9032074E7C74808380068C0F3404073
:102B20000028F1D1207800F00200022873D1E0687B
:102B300010B1E068012800D104E040F21D11AFA0FF
:102B400003F092FF20691F2800D804E04FF48F7132
:102B5000AAA003F089FFB748006800F00C0058B144
:102B6000B448006800F00C0008281CD1B148001FD0
:102B7000006800F48000B0B9AE4808380068C0F3BF
:102B8000400020B1E068012801D0012038E7A948C1
:102B90000838006820F0F800216940EAC100A54922
:102BA0000839086037E0E06800B30120A2490860F6
:102BB000FEF7D6FD054606E0FEF7D2FD401B0228D3
:102BC00001D903201CE79B4808380068C0F3400087
:102BD0000028F1D097480838006820F0F8002169F3
:102BE00040EAC10093490839086014E00020924986
:102BF0000860FEF7B5FD054606E0FEF7B1FD401B97
:102C0000022801D90320FBE68A4808380068C0F38F
:102C100040000028F1D1207800F00800082837D1C2
:102C2000606910B16069012800D104E04FF4AF7110
:102C300072A003F019FF6069A8B101207F49086004
:102C4000FEF78EFD054606E0FEF78AFD401B0228D2
:102C500001D90320D4E677486C300068C0F3400007
:102C60000028F1D014E0002074490860FEF778FDD8
:102C7000054606E0FEF774FD401B022801D903203B
:102C8000BEE66C486C300068C0F340000028F1D10B
:102C9000207800F00400042875D10027A06828B12E
:102CA000A068012802D0A068052800D104E04FF4F4
:102CB000C57152A003F0D8FE5E483830006800F0BD
:102CC000805090B900BF002000905A48383000680A
:102CD00040F080505749383108600846006800F0DD
:102CE0008050009000BF00BF01275548006800F4E5
:102CF0008070B0B95248006840F480705049086054
:102D0000FEF72EFD054606E0FEF72AFD401B0228D1
:102D100001D9032074E64A48006800F48070002856
:102D2000F2D000BFA068012808D14248683000688E
:102D300040F001003F49683108601DE0A0680528A7
:102D40000DD13C486830006840F0040039496831D2
:102D500008600846006840F0010008600CE0354853
:102D60006830006820F00100324968310860084688
:102D7000006820F00400086000BFA068A8B1FEF75A
:102D8000EFFC054609E02FE0FEF7EAFC401B41F2AC
:102D90008831884201D9032032E62648683000682D
:102DA000C0F340000028EFD013E0FEF7D9FC054641
:102DB00008E0FEF7D5FC401B41F28831884201D97A
:102DC00003201DE61B4868300068C0F3400000285F
:102DD000EFD1012F07D117483830006820F080501C
:102DE00014493831086000BFA06928B1A0690128E2
:102DF00002D0A069022825D12AE000002E2E2F44FF
:102E00007269766572732F53544D33324634787835
:102E10005F48414C5F4472697665722F5372632F2D
:102E200073746D3332663478785F68616C5F726397
:102E3000632E63000838024000004742800E47427C
:102E40000070004040F2CD11AFF2500003F00CFED4
:102E5000A06900287ED06C48006800F00C000828AB
:102E600079D0A069022877D1E06918B1E069B0F59E
:102E7000800F00D105E04FF4EB71AFF2800003F05A
:102E8000F3FD206A022803D3206A3F2800D805E01A
:102E900040F2D711AFF29C0003F0E6FD606A3228E1
:102EA00004D3606AB0F5D87F00D805E04FF4EC7128
:102EB000AFF2B80003F0D8FDA06A022808D0A06ADB
:102EC000042805D0A06A062802D0A06A082800D1EC
:102ED00005E040F2D911AFF2DC0003F0C5FDE06A75
:102EE000022803D3E06A0F2800D805E04FF4ED7103
:102EF000AFF2F80003F0B8FD002044490866FEF781
:102F00002FFC054606E0FEF72BFC401B022801D9EA
:102F1000032075E53C4808380068C0F3406000288D
:102F2000F1D1D4E907010843616A40EA8111012225
:102F3000A06AC2EB500041EA00412C20005D41EA4A
:102F400000603149091F0860012030490866FEF71A
:102F500007FC02E055E027E010E0054606E0FEF73A
:102F6000FFFB401B022801D9032049E52648083809
:102F70000068C0F340600028F1D042E000202349FF
:102F80000866FEF7EDFB054606E0FEF7E9FB401B91
:102F9000022801D9032033E51B4808380068C0F334
:102FA00040600028F1D12CE0A069012800D127E57C
:102FB0001548001F0668A069012820D006F480018A
:102FC000E06981421BD106F03F01206A814216D19F
:102FD00047F6C0703040616AB0EB811F0FD106F434
:102FE00040310122A06AC2EB5000B1EB004F06D184
:102FF00006F070612C20005DB1EB006F01D0012064
:10300000FEE40020FCE400000838024000004742D3
:1030100070B504462546681EB0F1807F01D30120BB
:103020000FE0681E4FF0E02148610F214FF0FF30A4
:1030300003F032FB00204FF0E02188610720086197
:10304000002070BD704770472DE9F04104460D46E1
:103050004149206888420FD02068B0F1804F0BD0E2
:103060003E492068884207D03D492068884203D005
:103070003C492068884200D104E040F2A9713AA09E
:1030800003F0F2FC2868A0B12868102811D0286845
:1030900020280ED0286830280BD02868402808D077
:1030A0002868502805D02868602802D02868702831
:1030B00000D104E040F2AA712BA003F0D5FC6868AF
:1030C000802801D0686800B904E040F2AB7126A006
:1030D00003F0CAFC00BF94F83C00012802D1022092
:1030E000BDE8F081012084F83C0000BF022084F894
:1030F0003D00206847682068866827F070072868C8
:1031000007432068476014492068884213D020682C
:10311000B0F1804F0FD01149206888420BD0104980
:103120002068884207D00F492068884203D01D4993
:103130002068884205D126F080066868064320682A
:103140008660012084F83D0000BF002084F83C0028
:1031500000BF00BFC4E700000000014000040040C1
:1031600000080040000C00402E2E2F447269766546
:1031700072732F53544D3332463478785F48414C44
:103180005F4472697665722F5372632F73746D3367
:1031900032663478785F68616C5F74696D5F6578FA
:1031A0002E6300000040014010B504460CB9012018
:1031B00010BD5249206888421BD02068B0F1804F72
:1031C00017D04F492068884213D04E492068884262
:1031D0000FD04D49206888420BD04C492068884266
:1031E00007D04B492068884203D04A49206888426A
:1031F00000D104E040F2131147A003F035FCA068B1
:1032000058B1A068102808D0A068202805D0A06870
:10321000402802D0A068602800D104E04FF48A71F1
:103220003DA003F021FC206938B12069B0F5807F12
:1032300003D02069B0F5007F00D104E040F2151101
:1032400035A003F011FC2068B0F1804F03D02E4967
:103250002068884201D1012000E0002048B9E068E0
:1032600028B1E068B0F5803F01D2012006E00020DF
:1032700004E0E06808B1012000E0002000B104E0B3
:103280004FF48B7124A003F0EFFBA06910B1A0698B
:10329000802800D104E040F217111FA003F0E4FBE6
:1032A00094F83D0028B9002084F83C00204600F046
:1032B0004FF8022084F83D00211D206802F0A6FB93
:1032C000012084F8460000BF84F83E0001213F2021
:1032D0000155402001554120015500BF00BF01208C
:1032E00084F84200432001554420015545200155F2
:1032F00000BF012084F83D00002059E70000014094
:103300000004004000080040000C00400040014064
:1033100000440140004801402E2E2F44726976651A
:1033200072732F53544D3332463478785F48414C92
:103330005F4472697665722F5372632F73746D33B5
:1033400032663478785F68616C5F74696D2E6300F3
:1033500038B504463B492068884218D100BF002098
:1033600000903948006840F004003749086008467A
:10337000006800F00400009000BF00BF002211466A
:103380001E20FFF7ADF81E20FFF770F859E02F4917
:103390002068884218D100BF002000902A480068A9
:1033A00040F00800284908600846006800F008005E
:1033B000009000BF00BF002211463220FFF790F8B6
:1033C0003220FFF753F83CE02149206888421AD1A7
:1033D00000BF002000901C48001D006840F4003031
:1033E0001949091D08600846006800F40030009083
:1033F00000BF00BF002211461920FFF771F8192005
:10340000FFF734F81DE013492068884219D100BF46
:10341000002000900C48001D006840F480200A49FC
:10342000091D08600846006800F48020009000BF75
:1034300000BF002211461A20FFF752F81A20FFF7AA
:1034400015F838BD0008004040380240000C00402C
:10345000004401400048014070B5044630492068EE
:1034600088421BD02068B0F1804F17D02D492068CA
:10347000884213D02C49206888420FD02B492068FD
:1034800088420BD02A492068884207D02949206801
:10349000884203D028492068884200D104E04FF4D4
:1034A000E87126A003F0E0FA94F83D00012801D06D
:1034B000012070BD022084F83D002068C06840F003
:1034C00001002168C86016492068884213D020682E
:1034D000B0F1804F0FD01349206888420BD01249B9
:1034E0002068884207D011492068884203D01049DB
:1034F000206888420CD12068806800F00705062DFE
:103500000CD02068006840F001002168086005E0E8
:103510002068006840F00100216808600020C8E7CA
:10352000000001400004004000080040000C004082
:103530000040014000440140004801402E2E2F442D
:103540007269766572732F53544D333246347878EE
:103550005F48414C5F4472697665722F5372632FE6
:1035600073746D3332663478785F68616C5F746948
:103570006D2E63002DE9F04104460D46002700BF83
:1035800094F83C00012802D10220BDE8F08101201E
:1035900084F83C0000BF022084F83D002868B0F5A4
:1035A000805F1AD02868702817D02868B0F5005FAF
:1035B00013D02868402810D0286850280DD02868DB
:1035C00060280AD0286840B12868102805D02868EB
:1035D000202802D02868302800D104E041F2C341FD
:1035E000F9A003F041FA2068866826F0770626F4F1
:1035F0007F4620688660286850287DD00CDC202813
:103600007BD004DC002879D0102878D1C1E13028A3
:1036100076D04028F9D176E1602872D070282DD07C
:10362000B0F5805F03D0B0F5005FEED189E0F449DA
:10363000206888421BD02068B0F1804F17D0F14934
:103640002068884213D0F049206888420FD0EF49A3
:10365000206888420BD0EE492068884207D0ED49A7
:103660002068884203D0EC492068884200D104E0F9
:1036700041F2CF41D4A003F0F7F9DCE1E049206842
:10368000884213D02068B0F1804F0FD0DD49206808
:1036900088420BD0DC492068884207D0DB4920688B
:1036A000884203D0DA492068884200D104E041F220
:1036B000D641C5A003F0D8F9A86858B1A868B0F5FC
:1036C000805F07D0A868B0F5005F03D0A868B0F5A8
:1036D000405F00D104E041F2D941BBA003F0C4F93E
:1036E0006868B0F5004F10D0686870B1686860B164
:1036F0006868022809D005E07BE04BE148E198E1E9
:1037000049E1BBE068680A2800D104E041F2DA41EF
:10371000ADA003F0A9F9E8680F2800D804E041F251
:10372000DB41A9A003F0A0F9D5E902136A6820687B
:1037300002F0C2F92068866846F077062068866045
:1037400079E1AF49206888420FD02068B0F1804FFE
:103750000BD0AC492068884207D0AB49206888422A
:1037600003D0AA492068884200D104E041F2EE412A
:1037700095A003F079F9A86858B1A868B0F5805F02
:1037800007D0A868B0F5005F03D0A868B0F5405F27
:1037900000D104E041F2F1418BA003F065F96868C3
:1037A000B0F5004F09D0686838B1686828B168681A
:1037B000022802D068680A2800D104E041F2F241F0
:1037C00081A003F051F9E8680F2800D804E041F225
:1037D000F3417DA003F048F9D5E902136A68206837
:1037E00002F06AF92068806840F4804021688860AF
:1037F00021E183492068884213D02068B0F1804FCE
:103800000FD08049206888420BD07F4920688842C9
:1038100007D07E492068884203D07D4920688842CD
:1038200000D104E041F2025167A003F01DF968687D
:10383000B0F5004F09D0686838B1686828B1686889
:10384000022802D068680A2800D104E041F205513C
:103850005DA003F009F9E8680F2800D804E041F200
:10386000065159A003F000F9EA686968206802F07F
:1038700037F95021206802F02AF9DCE0604920681D
:10388000884213D02068B0F1804F0FD05D49206886
:1038900088420BD05C492068884207D05B49206889
:1038A000884203D05A492068884200D104E041F29E
:1038B000125145A003F0D8F86868B0F5004F09D060
:1038C000686838B1686828B16868022802D06868FA
:1038D0000A2800D104E041F215513BA003F0C4F8DE
:1038E000E8680F2800D804E041F2165136A003F032
:1038F000BBF8EA686968206802F005F96021206871
:1039000002F0E5F897E03E492068884213D020682D
:10391000B0F1804F0FD03B49206888420BD03A4924
:103920002068884207D039492068884203D0384946
:103930002068884200D104E041F2225122A003F025
:1039400093F86868B0F5004F09D0686838B16868C6
:1039500028B16868022802D068680A2800D104E00B
:1039600041F2255118A003F07FF8E8680F2800D82D
:1039700004E041F2265114A003F076F8EA68696881
:10398000206802F0ADF84021206802F0A0F852E073
:1039900000BF00BF00BF1A492068884213D02068CA
:1039A000B0F1804F0FD01749206888420BD01649DC
:1039B0002068884207D015492068884203D01449FE
:1039C000206888422AD12FE02E2E2F447269766516
:1039D00072732F53544D3332463478785F48414CDC
:1039E0005F4472697665722F5372632F73746D33FF
:1039F00032663478785F68616C5F74696D2E63003D
:103A0000000001400004004000080040000C00409D
:103A100000400140004401400048014041F235515E
:103A2000AFF25C0003F020F82968206802F04FF83C
:103A300001E0012700BF00BF012084F83D0000BF66
:103A4000002084F83C0000BF38469EE5704770B502
:103A500004462068C5682068066906F0020002284E
:103A600019D105F00200022815D1401F2168086114
:103A7000012020772068806900F0030018B12046FB
:103A8000FFF7E4FF05E0204600F097F8204600F03D
:103A900095F80020207706F00400042819D105F0DD
:103AA0000400042815D1C043216808610220207752
:103AB0002068806900F4407018B12046FFF7C6FF07
:103AC00005E0204600F079F8204600F077F8002065
:103AD000207706F00800082819D105F0080008280A
:103AE00015D1C04321680861042020772068C0698F
:103AF00000F0030018B12046FFF7A8FF05E02046BC
:103B000000F05BF8204600F059F80020207706F01E
:103B10001000102819D105F01000102815D1C0434D
:103B200021680861082020772068C06900F440708F
:103B300018B12046FFF78AFF05E0204600F03DF867
:103B4000204600F03BF80020207706F0010048B145
:103B500005F0010030B16FF00100216808612046D6
:103B600000F02EF806F08000802809D105F08000D2
:103B7000802805D1C043216808612046FFF762FA1A
:103B800006F04000402809D105F04000402805D14A
:103B9000C04321680861204600F046F806F0200086
:103BA000202809D105F02000202805D1C043216834
:103BB00008612046FFF747FA70BD70477047000064
:103BC00010B5044614492068884223D101211348C6
:103BD000FDF720FD01281AD11148007820B10128F5
:103BE00006D002280ED10CE001200D4908700DE02E
:103BF0004FF400510B48FDF741FD022008490870C1
:103C000004E003E000200649087000BF02E0002045
:103C10000349087010BD000000440140000002404C
:103C200000000020000802407047F8B504460D4629
:103C3000164694F8420020282DD105B10EB9012076
:103C4000F8BD0120206300206063324629462046EB
:103C500002F09EFA0746206B012819D100BF002010
:103C6000009020680068009020684068009000BFC5
:103C700000BF00BF00BF21680C3151E8001F41F0B8
:103C8000100021680C3141E80002002AF3D100E065
:103C900001273846D4E70220D2E7000070B5044679
:103CA0000D460849206888420AD100200649485537
:103CB0000120064948701E2203490548FFF7B5FF59
:103CC00070BD0000001401400C0100200200002023
:103CD000F4020020704700002DE9F84F04462068E8
:103CE00005682068C668206847694FF00009CA4621
:103CF00005F00F09B9F1000F0AD105F0200038B125
:103D000006F0200020B1204602F053F8BDE8F88FFD
:103D1000B9F1000F7CD007F0010018B906F49070DB
:103D2000002875D005F0010030B106F4807018B19C
:103D3000606C40F00100606405F0040030B107F0F1
:103D4000010018B1606C40F00200606405F00200F0
:103D500030B107F0010018B1606C40F004006064FD
:103D600005F0080048B106F0200010B907F0010086
:103D700018B1606C40F008006064606C002846D0A8
:103D800005F0200028B106F0200010B1204602F016
:103D900010F820684069C0F3801A606C00F00800D9
:103DA00010B9BAF1000F2DD0204601F0A9FF20680C
:103DB000406900F04000402820D100BF00BF2168CA
:103DC000143151E8001F21F040002168143141E80E
:103DD0000002002AF3D100BFE06B50B17F48E16BD5
:103DE0000865E06BFCF7DAFD88B1E06B016D884790
:103DF0000DE02046FFF76EFF09E009E02046FFF7DF
:103E000069FF04E02046FFF765FF002060647DE75E
:103E1000206B012878D105F01000002874D006F03E
:103E200010000028FAD000BF002000902068006831
:103E3000009020684068009000BF00BF2068406983
:103E400000F04000402870D1E06B006840681FFA25
:103E500080F8B8F1000F58D0A08D404555DDA4F88A
:103E60002E80E06BC069B0F5807F43D000BF00BFFB
:103E700021680C3151E8001F21F4807021680C3159
:103E800041E80002002AF3D100BF00BF00BF216853
:103E9000143151E8001F21F001002168143141E87C
:103EA0000002002AF3D100BF00BF00BF2168143117
:103EB00051E8001F21F040002168143141E8000260
:103EC000002AF3D100BF202084F8420000202063A4
:103ED00000BF00BF21680C3151E8001F21F0100025
:103EE00021680C3141E80002002AF3D100BFE06BE9
:103EF000FCF7FEFC02206063A08DE28D801A81B287
:103F00002046FFF7CBFE0EE052E0A08D40450AD1DF
:103F1000E06BC069B0F5807F05D102206063A18DA0
:103F20002046FFF7BBFEF1E6FFE7A08DE18D401ACA
:103F30001FFA80F8E08DD0B3B8F1000F37D000BF82
:103F400000BF21680C3151E8001F21F490702168F6
:103F50000C3141E80002002AF3D100BF00BF00BFCE
:103F60002168143151E8001F21F00100216814314B
:103F700041E80002002AF3D100BF202084F842006B
:103F80000020206300BF00BF21680C3151E8001FF2
:103F900021F0100021680C3141E80002002AF3D121
:103FA00000BF0220606341462046FFF777FEADE682
:103FB00005F0800030B106F0800018B1204602F014
:103FC00053F9A3E605F0400030B106F0400018B107
:103FD000204601F0CBFE99E600BF97E6615B000842
:103FE00010B504460CB9012010BDA069002826D0E8
:103FF00041492068884207D040492068884203D060
:104000003F492068884200D104E040F273113DA08E
:1040100002F02AFDA06958B1A069B0F5807F07D0F1
:10402000A069B0F5007F03D0A069B0F5407F00D152
:1040300017E04FF4BA7133A002F016FD11E02E49DB
:104040002068884207D02D492068884203D02C4937
:104050002068884200D104E04FF4BC7129A002F02E
:1040600003FDA06818B1A068B0F5805F00D104E03E
:104070004FF4BD7123A002F0F7FCE06918B1E069CC
:10408000B0F5004F00D104E040F27B111DA002F01A
:10409000EBFC94F8410028B9002084F84000204649
:1040A00000F04EF8242084F841002068C06820F415
:1040B00000502168C860204601F0FAFE20680069BF
:1040C00020F49040216808612068406920F02A00AF
:1040D000216848612068C06840F400502168C860C9
:1040E00000206064202084F8410084F84200002011
:1040F000606300BF78E7000000100140004400400A
:10410000001401402E2E2F447269766572732F536E
:10411000544D3332463478785F48414C5F4472697D
:104120007665722F5372632F73746D3332663478F1
:10413000785F68616C5F756172742E6300000000C7
:1041400010B586B00446142101A8FCF7CBF97E49CE
:104150002068884279D100BF002000907B48006829
:1041600040F01000794908600846006800F010002F
:10417000009000BF00BF00BF0020009073481438BB
:10418000006840F001007149143908600846006871
:1041900000F00100009000BF00BF4FF4C06001902C
:1041A0000220029000200390032004900720059035
:1041B00001A96748FDF754F86648674908604FF061
:1041C000006048604021644881600021C1604FF474
:1041D00080610161002141618161C16101624162CF
:1041E000FCF710FD08B1FCF711FB00BF5A48A063B3
:1041F000846300BF57487838584908604FF0006022
:104200004860002155488160C1604FF480610161C0
:104210000021416181614FF48071C161002101621F
:104220004162FCF7EFFC08B1FCF7F0FA00BF4B4825
:10423000E063846300BF002211462520FEF750F999
:104240002520FEF713F97CE0FFE745492068884206
:1042500077D100BF002000903C48006840F020006B
:104260003A4908600846006800F02000009000BF4E
:1042700000BF00BF0020009034481438006840F0B0
:1042800001003249143908600846006800F0010056
:10429000009000BF00BF4FF4C05001900220029078
:1042A00000200390032004900820059001A92848CD
:1042B000FCF7D6FF274890382A49086080054860F7
:1042C000002128488160C1604FF4806101610021B4
:1042D000416181614FF48071C161002101624162DD
:1042E000FCF790FC08B1FCF791FA00BF1D48E063B1
:1042F000846300BF174818381B4908604FF02060DE
:1043000048604021184881600021C1604FF48061FD
:104310000161002141618161C16101624162FCF77B
:1043200071FC08B1FCF772FA00BF0F48A063846308
:1043300000BF002211464720FEF7D2F84720FEF7C3
:1043400095F806B010BD000000100140443802404E
:1043500000000240B86402403C0300209C0300209F
:1043600000140140FC0300205C04002070477047EB
:10437000F7B50446154694F8410020283ED101982F
:1043800000B10DB90120FEBD01982062A584E5842D
:1043900000206064212084F841001948A16BC863A3
:1043A0001848A16B08641848A16BC8640020A16B71
:1043B000086501AE23681A1D31682B46A06BFCF717
:1043C000CFFD30B110206064202084F8410001202E
:1043D000D9E76FF040002168086000BF00BF216886
:1043E000143151E8001F41F080002168143141E888
:1043F0000002002AF3D100BF0020C4E70220C2E778
:104400009B5C0008F35C0008735B000810B5044671
:1044100007492068884209D106490748FCF726FA6F
:1044200020B10A2203490548FFF7A2FF10BD000092
:1044300000100140A00F0020E00E0020AC02002080
:10444000704700BFFEE700002DE9F047044615461F
:10445000DDF8208000200860186000BF65E0394A60
:1044600002EB00121268A24200D05DE0DFF8D4A097
:104470000AEB001A9AF808204FEAE27A02EB5A7A1D
:104480004FEAEA0AA2EBCA0A4FEA8A06DFF8B4A0AA
:104490000AEB001A9AF808204FEAE27A02EB5A7AFD
:1044A0004FEAEA07274A02EB00125268203252F81C
:1044B00027C0244A02EB00125268D2F800902CFA6E
:1044C00006F202F00F02042A2DD11E4A02EB00125E
:1044D000127A520029FA02F202F00302022A22D1D1
:1044E000184A02EB0012D26872B1164A02EB0012AF
:1044F00052680A60134A02EB001292F808A00122E7
:1045000002FA0AF22A800EE00E4A02EB001252680A
:104510001A600C4A02EB001292F808A0012202FA7B
:104520000AF2A8F8002000BF401C082897DB0868A2
:1045300020B1186810B10020BDE8F0874FF0FF30BF
:10454000FAE70000A4900008014608684069C0F33B
:104550008020B0B16FF480600A6850610020086369
:10456000202081F83D00002081F83E00086C40F0DA
:104570000400086400BF002081F83C0000BF012057
:1045800070470020FCE700002DE9F84304460F4681
:1045900015469946DDE908862068006840F4806089
:1045A000216808602068006840F480702168086015
:1045B000434600224FF001112046009600F037F9E3
:1045C00060B12068006800F48070B0F5807F02D18F
:1045D0004FF4007020640320BDE8F88307F0FE006C
:1045E00021680861334642463E49204600F07EF984
:1045F00008B10120F0E700BF00200090206840696A
:10460000009020688069009000BF00BF324641469C
:10461000204600F02DFA50B1206C042805D1206806
:10462000006840F40070216808600120D4E7B9F107
:10463000010F03D1E8B22168086117E0C5F3072034
:104640002168086132464146204600F011FA50B117
:10465000206C042805D12068006840F400702168AF
:1046600008600120B8E7E8B2216808613246414697
:10467000204600F0FDF950B1206C042805D12068D7
:10468000006840F40070216808600120A4E72068F9
:10469000006840F4807021680860434600224FF0B3
:1046A00001112046009600F0C2F858B12068006859
:1046B00000F48070B0F5807F02D14FF40070206468
:1046C000032089E7F8B240F0010021680861334611
:1046D00042460449204600F009F908B101207BE771
:1046E000002079E7020001002DE9F84304468846DE
:1046F00015469946DDE908672068006840F4807037
:1047000021680860334600224FF0011120460097CF
:1047100000F08DF860B12068006800F48070B0F59A
:10472000807F02D14FF4007020640320BDE8F8833D
:1047300008F0FE00216808613B46324621492046C8
:1047400000F0D4F808B10120F0E700BF002000908D
:1047500020684069009020688069009000BF00BF19
:104760003A463146204600F083F950B1206C0428C7
:1047700005D12068006840F40070216808600120BD
:10478000D4E7B9F1010F03D1E8B22168086117E05D
:10479000C5F30720216808613A463146204600F0FB
:1047A00067F950B1206C042805D12068006840F4F6
:1047B0000070216808600120B8E7E8B2216808614C
:1047C0000020B3E70200010070B504460D4616460E
:1047D00025E02046FFF7B8FE08B1012070BD681C37
:1047E000E8B1FCF7BDFF801BA84200D8BDB9206826
:1047F0004069C0F3800090B900202063202084F835
:104800003D00002084F83E00206C40F02000206431
:1048100000BF002084F83C0000BF0120DEE72068D4
:104820004069C0F380000028D3D00020D6E72DE9EE
:10483000F04104460D4617461E46DDF8188038E064
:10484000701CA8B3FCF78CFFA0EB0800B04200D8A6
:1048500076BBC5F3074001280AD120684069A9B298
:104860000840A9B2884201D101200BE0002009E0F4
:1048700020688069A9B20840A9B2884201D101200C
:1048800000E00020B84214D100202063202084F8EA
:104890003D00002084F83E00206C40F020002064A1
:1048A00000BF002084F83C0000BF0120BDE8F0817B
:1048B000FFE7C5F3074001280AD120684069A9B283
:1048C0000840A9B2884201D101200BE0002009E094
:1048D00020688069A9B20840A9B2884201D10120AC
:1048E00000E00020B842ABD00020DFE72DE9F04126
:1048F00004460D4616461F4658E020684069C0F33E
:104900008020E8B12068006840F4007021680860E9
:104910006FF480602168486100202063202084F8C3
:104920003D00002084F83E00206C40F0040020642C
:1049300000BF002084F83C0000BF0120BDE8F081EA
:10494000701C90B3FCF70CFFC01BB04200D866BBD4
:10495000C5F3074001280AD120684069A9B2084080
:10496000A9B2884201D101200BE0002009E02068B3
:104970008069A9B20840A9B2884201D1012000E0B3
:10498000002090B900202063202084F83D00002002
:1049900084F83E00206C40F02000206400BF00201E
:1049A00084F83C0000BF0120C8E7FFE7C5F30740DB
:1049B00001280AD120684069A9B20840A9B28842FA
:1049C00001D101200BE0002009E020688069A9B234
:1049D0000840A9B2884201D1012000E0002000284F
:1049E0008BD00020AAE770B504460D46164637E086
:1049F00020684069C0F30010A0B16FF0100021687A
:104A0000486100202063202084F83D00002084F8C5
:104A10003E00206C206400BF002084F83C0000BFF2
:104A2000012070BDFCF79CFE801BA84200D8BDB9D8
:104A300020684069C0F3801090B9002020632020D6
:104A400084F83D00002084F83E00206C40F02000F7
:104A5000206400BF002084F83C0000BF0120E0E794
:104A600020684069C0F380100028C1D00020D8E73A
:104A700070B504460D46164625E02046FFF764FD56
:104A800008B1012070BD681CE8B1FCF769FE801B0D
:104A9000A84200D8BDB920684069C0F3C01090B9E1
:104AA00000202063202084F83D00002084F83E0090
:104AB000206C40F02000206400BF002084F83C00FF
:104AC00000BF0120DEE720684069C0F3C010002865
:104AD000D3D00020D6E7000010B50121014801F035
:104AE00026F810BDD091000810B50121014801F051
:104AF0001EF810BDC491000810B50121014801F055
:104B000016F810BDB8910008F0B52DED0C8B85B0EE
:104B100004460D46164604AB03AA02A901A800F0FC
:104B20009DF8074627B1384605B0BDEC0C8BF0BDAB
:104B30009DED010AB8EEC00ADFED440A80EE208A3E
:104B40009DED020AB8EEC00ADFED400AC0EE208AF1
:104B50009DED030AB8EEC00ADFED3C0A80EE209A14
:104B60009DED040AB8EEC00ADFED380AC0EE209AC7
:104B700028EE08BA68EEA8BA29EE09CA69EEA9CAF1
:104B800029EE291A08EE281AF0EE001A21EE211A51
:104B9000B0EE410A3BEE6B1A31EE4C1A31EE2C1A94
:104BA000F0EE410A01F022FEB0EE40DA28EEA90A4A
:104BB00008EE490AF8EE000A60EE20AAB7EE000AF5
:104BC000F4EEC0AAF1EE10FA02DD9FED21AA0FE08B
:104BD000BFEE000AF4EEC0AAF1EE10FA02D29FED89
:104BE0001DAA05E0B0EE6A0A01F06AFDB0EE40AA27
:104BF00028EE891A08EE291AF0EE001A21EE211A81
:104C0000B0EE410A3BEE2B1A31EE4C1A31EE6C1A23
:104C1000F0EE410A01F0EAFDF0EE40DA2CB19FED32
:104C20000E0A2AEE000A84ED000A2DB19FED0A0A51
:104C30002DEE000A85ED000A2EB19FED070A2DEE3C
:104C4000800A86ED000A00206EE700000000804E1A
:104C5000DB0FC93FDB0FC9BFE12E65422DE9F041F3
:104C60008EB004460D4616461F4604A809A903AB9C
:104C700005AACDE900100AA90CA802F0ABF88046FD
:104C8000B8F1000F04D04FF0FF300EB0BDE8F08156
:104C90000CB1059820600DB1069828600EB10798F8
:104CA00030600FB1089838600020EEE738B500F0AA
:104CB00047F8044614B16FF0030038BD02F096FDCA
:104CC000044614B14FF0FF30F7E7782003F098FA6C
:104CD000782002F02DFD642003F044FA02F06EF813
:104CE000044614B16FF00100E7E7642002F05CF9BC
:104CF000702001F00BFF4FF4C875280A00906A4637
:104D000001214FF4B47003F0E3FAE8B200906A4670
:104D100001214FF4B57003F0DBFA022002F07CF9B8
:104D2000002003F0D5F9012003F09CF9012003F0E5
:104D30000DF9044614B16FF00200BEE70020BCE795
:104D40007FB51F4A07CA01AB07C31EA000680090C9
:104D500000242FE001A850F82400006800B928E0E2
:104D60001948006819490A5D01219140084000B9BD
:104D70001FE000251AE01DF80520510001AA52F895
:104D8000240032230322FCF7BBFE70B901A850F8BF
:104D900024000F490860601C0E4908601DF80500DA
:104DA0000D490870002004B070BD6D1C022DE2DBBF
:104DB00000BF641C032CCDDB4FF0FF30F3E7000095
:104DC00028910008686900004038024024910008DA
:104DD00054000020580000205C00002010B58AB06C
:104DE00000200990089007900690142101A8FBF775
:104DF00079FB4248006830B9FFF7A2FF18B14FF0C5
:104E0000FF300AB010BD06A808AB07AA09A9009098
:104E10003A480068FFF718FB10B14FF0FF30F0E799
:104E200037480068FCF7A2FC0120029000200390A4
:104E300003200490BDF81C00019001A90998FCF71B
:104E40000FFABDF81800019001A90898FCF708FABC
:104E50000122BDF81C100998FCF746FC0122BDF8A0
:104E600018100898FCF740FC0120FCF7E9F8002432
:104E700012E00022BDF81C100998FCF735FC012057
:104E8000FCF7DEF80122BDF81C100998FCF72CFC99
:104E90000120FCF7D5F8641C092CEADB0022BDF8E0
:104EA00018100898FCF720FC0120FCF7C9F8012233
:104EB000BDF81C100998FCF717FC0120FCF7C0F89E
:104EC0000122BDF818100898FCF70EFC0120FCF731
:104ED000B7F81220029004200590BDF81C00019044
:104EE00001A90998FCF7BCF9BDF81800019001A9C7
:104EF0000898FCF7B5F9002083E70000580000206F
:104F000054000020FEB504460D4616461F460B48C9
:104F1000006810B94FF0FF30FEBD6420610001232E
:104F20002A46CDE90076029004480068FCF7C4FEEA
:104F300008B90020F0E74FF0FF30EDE75400002003
:104F4000FEB504460D4616461F460B48006810B9CC
:104F50004FF0FF30FEBD6420610001232A46CDE9F9
:104F60000076029004480068FDF750F808B9002068
:104F7000F0E74FF0FF30EDE75400002008B500BF28
:104F8000002000901648006840F480001449086032
:104F90000846006800F48000009000BF00BF0022B7
:104FA00011463920FDF79CFA3920FDF75FFA0022FF
:104FB00011463A20FDF794FA3A20FDF757FA0022FD
:104FC00011464520FDF78CFA4520FDF74FFA0022E7
:104FD00011464620FDF784FA4620FDF747FA08BD42
:104FE0003038024000B587B0142102A8FBF77AFAE6
:104FF00000BF002001903548006840F004003349AC
:1050000008600846006800F00400019000BF00BF7F
:1050100000BF002001900846006840F08000086052
:105020000846006800F08000019000BF00BF00BF8C
:10503000002001900846006840F001000860084622
:10504000006800F00100019000BF00BF00BF002019
:1050500001900846006840F00200086008460068B9
:1050600000F00200019000BF00BF00224FF4005189
:105070001748FCF739FB4FF40050029001200390D1
:1050800000200490059002A91148FCF7E9F80120DE
:10509000029000200390049002A90E48FCF7E0F86B
:1050A0004FF4004002904FF48810039002200490C7
:1050B00002A90948FCF7D4F8002201212820FDF7B5
:1050C0000FFA2820FDF7D2F907B000BD30380240B2
:1050D00000080240000002400004024010B50B48E6
:1050E0000B4908600B484860002109488160C16095
:1050F0004FF480410161002141618161C161016220
:10510000FCF786FB08B1FBF781FB10BD00540040A3
:105110002C010020A086010010B50748074908604F
:105120000220486040F6FF7104488160FDF7A6F850
:1051300008B1FBF76BFB10BD003000408001002080
:1051400010B50A480A49086042F20F704860002111
:1051500007488160C721C160002101618161FEF7BC
:1051600023F808B1FBF752FB10BD000000440140DA
:105170001C02002010B50A480A49086042F20F706C
:1051800048600021074881609521C16000210161CC
:105190008161FEF709F808B1FBF738FB10BD00008C
:1051A000004801406402002000B587B00020039051
:1051B00004900590069001900290154815490860EA
:1051C00042F20F7048600021124881604FF47A71FA
:1051D000C160002101618161FDF7E6FF08B1FBF7C5
:1051E00015FB4FF48050039003A90A48FEF7C2F95B
:1051F00008B1FBF70BFB00200190029001A90548C4
:10520000FDF722FF08B1FBF701FB07B000BD00006E
:10521000000800408C01002000B587B000200390FA
:10522000049005900690019002901448144908607B
:1052300042F20F7048600021114881606421C16012
:10524000002101618161FDF7AFFF08B1FBF7DEFAD4
:105250004FF48050039003A90948FEF78BF908B179
:10526000FBF7D4FA00200190029001A90448FDF751
:10527000EBFE08B1FBF7CAFA07B000BD000C004016
:10528000D401002010B50B480B4908604FF4E13001
:105290004860002108488160C16001610C214161C2
:1052A00000218161C161FEF79BFE08B1FBF7AEFAF8
:1052B00010BD000000100140AC02002010B50B48EA
:1052C0000B4908604FF4E1304860002108488160D4
:1052D000C16001610C21416100218161C161FEF762
:1052E0007FFE08B1FBF792FA10BD000000140140E8
:1052F000F402002000BFFEE710B5454800780528FD
:1053000020D2DFE800F0032031445500002016E0F1
:1053100000EB80013F4A52F82110097801290DD194
:105320003D4A107000EB80013A4A02EB8101097C92
:105330003A4A11700121364A117002E0401C0428DB
:10534000E6D300BF61E03449097801EB8101314ABD
:1053500002EB810148688047FCF702FA3049086097
:1053600002202B49087050E0FCF7FAF92C49096833
:10537000401A2949097801EB8101264A02EB810193
:10538000C968884202D30320214908703DE02249C0
:10539000097801EB81011F4A02EB8101886880478F
:1053A000FCF7DEF91E4908600420194908702CE05A
:1053B000FCF7D6F91A490968401A1749097801EB30
:1053C0008101144A02EB8101C96888421CD3134849
:1053D0000078401E114908700020114908600F48EC
:1053E0000078002803DD0120094908700CE000F076
:1053F0001DF80020064908700749097801EB810172
:10540000044A52F82110087000BF00BF10BD000010
:10541000C000002070000020C1000020C800002053
:10542000C400002000BFFEE77047000010B5122145
:10543000014800F07CFB10BD3491000810B501213B
:10544000014800F074FB10BDD691000810B5012191
:10545000014800F06CFB10BDCA91000810B5012195
:10546000014800F064FB10BDBE91000810B500F0CB
:105470003DFF10BD2DE9F04104460D46164600BF24
:105480000D48007808B900F031FF00BFEFF311803C
:105490000746202080F3118800BF00BF324629460E
:1054A000204600F00BF88046F8B280F3118800BF68
:1054B00000BF4046BDE8F081BC0400202DE9F04764
:1054C000074688461646C24607EB47011B4800EBD5
:1054D000C109D9F8140020B1012811D0022826D121
:1054E0001EE0484600F042FF0546B54201D20024C6
:1054F00005E0344632465146484601F08CF818E043
:10550000484600F033FF0546B54201D2284600E088
:105510003046044622465146484601F07CF808E0F1
:1055200032465146484601F03DF8044601E0002469
:1055300000BF00BF2046BDE8F0870000D404002073
:105540000FB438B5044606A800906A46204605996F
:1055500000F007F8054600200090284638BC5DF8AA
:1055600014FB2DE9F04F99B082460D46144603A86E
:1055700014904020159000201690CDF860A0179050
:1055800000BF2E786D1C06B9DDE0252E79D10027ED
:105590004FF0010900BF2E78232E12D02B2E0CD0F5
:1055A0002D2E02D0302E10D103E047F001076D1CE4
:1055B0000EE047F002076D1C0AE047F004076D1C7F
:1055C00006E047F008076D1C02E04FF0000900BF3D
:1055D00000BFB9F1000FDED14FF0000800BF2E78F8
:1055E000302E01DB392E00DD07E06D1CA6F1300006
:1055F00008EB880100EB4108F1E700BF00201390A1
:105600002E782E2E12D16D1C00BF2E78302E01DB8D
:10561000392E00DD09E06D1CA6F13000139901EB75
:10562000810100EB41001390EFE700BF2E7800BF2F
:105630006C2E01D0682E02D16D1C2E7800E000E0A7
:10564000F6E700BF702E5DD008DC252E6AD0582EFC
:1056500035D0632E09D0642E69D113E0732E3CD06F
:10566000752E1DD0782E62D128E02168081D20609B
:10567000D1F8009009F0FF0B594614A800F070FF14
:1056800056E058E02168081D2060D1F80090CDE96F
:1056900000870A22494614A8139B00F075FE47E0D4
:1056A0002168081D2060D1F80090CDE900870A220A
:1056B000494614A8139B00F0DDFE39E000BF2168C5
:1056C000081D2060D1F80090CDE9008710224946DE
:1056D00014A8139B00F0CEFE2AE02168081D20606C
:1056E000D1F800B000BF9BF800600BF1010B06B9C8
:1056F00006E0314614A800F033FF17980028F2DACC
:1057000000BF15E02168081D2060D1F8009000203E
:1057100008210B461022CDE90010494614A800F0DC
:10572000A9FE05E0252114A800F01AFF00E000BF43
:1057300000BF6D1C03E0314614A800F011FF17985C
:105740000028BFF61EAF00BF179800280ADD169884
:1057500020B103A95046169AFFF78CFEDDE916101A
:1057600008441790179819B0BDE8F08F70470000F3
:10577000FEB506460C46154655208DF800008DF8FE
:1057800001008DF8026007208DF8030001208DF8DC
:105790000400E0B28DF80500200A8DF80600E8B29A
:1057A0008DF80700280A8DF808000027022004E081
:1057B0001DF8001039448FB2401C0828F8DDF8436A
:1057C000C0B28DF8090069460948FBF770F870B15E
:1057D000084890F84100202809D107490448FBF700
:1057E00045F820B10A2204490248FEF7C1FDFEBD7A
:1057F000E00E0020AC020020A00F002010B50446EF
:1058000013A12046FAF796FE18B9012014498870B2
:1058100019E014A12046FAF78DFE18B901201049AD
:10582000C87010E013A12046FAF784FE18B90120D1
:105830000B49087107E012A12046FAF77BFE10B968
:105840000120074948711E212046FAF729FE10BDA4
:1058500077616C6B5F666F72776172640000000045
:105860000200002077616C6B5F6261636B7761722D
:10587000640000006D6F76655F746F6C6566740020
:105880006D6F76655F746F72696768740000000001
:1058900070B50546002428E004EB8401154A02EBAC
:1058A000C1002946FAF746FEF0B904EB840011491D
:1058B00001EBC00090F8250090B904EB84020B4680
:1058C00003EBC20292F8241004EB840203EBC20241
:1058D000106A00F02CF91E212846FAF7E1FD70BD90
:1058E0002846FFF78BFFFAE7641C162CD4D300BFC1
:1058F000F5E700000892000810B5FCF743FD10BD65
:1059000000B593B0302107A8FAF7ECFD142102A8E6
:10591000FAF7E8FD00BF002001902548006840F03C
:105920008050234908600846006800F080500190CC
:1059300000BF00BF00BF002001901E48006840F477
:1059400040401C4908600846006800F4404001904F
:1059500000BF00BF092007904FF48030089001205D
:105960000C9002200D9041050E9119210F91C82134
:105970001091022111910421129107A8FDF73CF822
:1059800008B1FAF743FF0F20029002200390002095
:1059900004904FF48050059000200690032102A847
:1059A000FCF74CFE08B1FAF731FF13B000BD000060
:1059B00040380240007000400348006840F4700026
:1059C000014908607047000088ED00E010B502480A
:1059D000FEF73DF810BD00006402002010B502483B
:1059E000FEF735F810BD00001C02002010B502487B
:1059F000FEF72DF810BD00008C01002010B5024804
:105A0000FEF725F810BD0000D401002010B5026893
:105A1000224B98420BD0B0F1804F08D0204B9842D7
:105A200005D0204B984202D01F4B984203D122F060
:105A300070024B681A43194B984214D0B0F1804F52
:105A400011D0174B98420ED0164B98420BD0164BE4
:105A5000984208D0154B984205D0154B984202D079
:105A6000144B984203D122F44072CB681A4322F0BF
:105A700080034C6943EA04028B68C3620B6883624B
:105A8000064B984201D10B690363036843F004039A
:105A9000036001234361026010BD0000000001406B
:105AA0000004004000080040000C0040004001409D
:105AB000004401400048014030B50C46816821F4A3
:105AC0007F4142EA032525432943816030BD0A46D0
:105AD000816821F0700142F007031943816070472B
